{
  "contractName": "NFTCollection",
  "abi": [
    {
      "inputs": [],
      "stateMutability": "nonpayable",
      "type": "constructor"
    },
    {
      "anonymous": false,
      "inputs": [
        {
          "indexed": true,
          "internalType": "address",
          "name": "owner",
          "type": "address"
        },
        {
          "indexed": true,
          "internalType": "address",
          "name": "approved",
          "type": "address"
        },
        {
          "indexed": true,
          "internalType": "uint256",
          "name": "tokenId",
          "type": "uint256"
        }
      ],
      "name": "Approval",
      "type": "event"
    },
    {
      "anonymous": false,
      "inputs": [
        {
          "indexed": true,
          "internalType": "address",
          "name": "owner",
          "type": "address"
        },
        {
          "indexed": true,
          "internalType": "address",
          "name": "operator",
          "type": "address"
        },
        {
          "indexed": false,
          "internalType": "bool",
          "name": "approved",
          "type": "bool"
        }
      ],
      "name": "ApprovalForAll",
      "type": "event"
    },
    {
      "anonymous": false,
      "inputs": [
        {
          "indexed": false,
          "internalType": "address",
          "name": "from",
          "type": "address"
        },
        {
          "indexed": false,
          "internalType": "address",
          "name": "to",
          "type": "address"
        },
        {
          "indexed": false,
          "internalType": "uint256",
          "name": "id",
          "type": "uint256"
        }
      ],
      "name": "NFTTransferedByOwner",
      "type": "event"
    },
    {
      "anonymous": false,
      "inputs": [
        {
          "indexed": false,
          "internalType": "uint256",
          "name": "id",
          "type": "uint256"
        },
        {
          "indexed": false,
          "internalType": "string",
          "name": "tokenURI",
          "type": "string"
        },
        {
          "indexed": false,
          "internalType": "string",
          "name": "name",
          "type": "string"
        },
        {
          "indexed": false,
          "internalType": "string",
          "name": "description",
          "type": "string"
        }
      ],
      "name": "NewNFTCollectionMint",
      "type": "event"
    },
    {
      "anonymous": false,
      "inputs": [
        {
          "indexed": true,
          "internalType": "address",
          "name": "from",
          "type": "address"
        },
        {
          "indexed": true,
          "internalType": "address",
          "name": "to",
          "type": "address"
        },
        {
          "indexed": true,
          "internalType": "uint256",
          "name": "tokenId",
          "type": "uint256"
        }
      ],
      "name": "Transfer",
      "type": "event"
    },
    {
      "inputs": [
        {
          "internalType": "uint256",
          "name": "",
          "type": "uint256"
        }
      ],
      "name": "_tokenIdToDetail",
      "outputs": [
        {
          "internalType": "uint256",
          "name": "tokenId",
          "type": "uint256"
        },
        {
          "internalType": "string",
          "name": "name",
          "type": "string"
        },
        {
          "internalType": "string",
          "name": "description",
          "type": "string"
        }
      ],
      "stateMutability": "view",
      "type": "function"
    },
    {
      "inputs": [
        {
          "internalType": "address",
          "name": "to",
          "type": "address"
        },
        {
          "internalType": "uint256",
          "name": "tokenId",
          "type": "uint256"
        }
      ],
      "name": "approve",
      "outputs": [],
      "stateMutability": "nonpayable",
      "type": "function"
    },
    {
      "inputs": [
        {
          "internalType": "address",
          "name": "owner",
          "type": "address"
        }
      ],
      "name": "balanceOf",
      "outputs": [
        {
          "internalType": "uint256",
          "name": "",
          "type": "uint256"
        }
      ],
      "stateMutability": "view",
      "type": "function"
    },
    {
      "inputs": [
        {
          "internalType": "uint256",
          "name": "tokenId",
          "type": "uint256"
        }
      ],
      "name": "getApproved",
      "outputs": [
        {
          "internalType": "address",
          "name": "",
          "type": "address"
        }
      ],
      "stateMutability": "view",
      "type": "function"
    },
    {
      "inputs": [
        {
          "internalType": "address",
          "name": "owner",
          "type": "address"
        },
        {
          "internalType": "address",
          "name": "operator",
          "type": "address"
        }
      ],
      "name": "isApprovedForAll",
      "outputs": [
        {
          "internalType": "bool",
          "name": "",
          "type": "bool"
        }
      ],
      "stateMutability": "view",
      "type": "function"
    },
    {
      "inputs": [],
      "name": "name",
      "outputs": [
        {
          "internalType": "string",
          "name": "",
          "type": "string"
        }
      ],
      "stateMutability": "view",
      "type": "function"
    },
    {
      "inputs": [
        {
          "internalType": "uint256",
          "name": "tokenId",
          "type": "uint256"
        }
      ],
      "name": "ownerOf",
      "outputs": [
        {
          "internalType": "address",
          "name": "",
          "type": "address"
        }
      ],
      "stateMutability": "view",
      "type": "function"
    },
    {
      "inputs": [
        {
          "internalType": "address",
          "name": "from",
          "type": "address"
        },
        {
          "internalType": "address",
          "name": "to",
          "type": "address"
        },
        {
          "internalType": "uint256",
          "name": "tokenId",
          "type": "uint256"
        }
      ],
      "name": "safeTransferFrom",
      "outputs": [],
      "stateMutability": "nonpayable",
      "type": "function"
    },
    {
      "inputs": [
        {
          "internalType": "address",
          "name": "from",
          "type": "address"
        },
        {
          "internalType": "address",
          "name": "to",
          "type": "address"
        },
        {
          "internalType": "uint256",
          "name": "tokenId",
          "type": "uint256"
        },
        {
          "internalType": "bytes",
          "name": "data",
          "type": "bytes"
        }
      ],
      "name": "safeTransferFrom",
      "outputs": [],
      "stateMutability": "nonpayable",
      "type": "function"
    },
    {
      "inputs": [
        {
          "internalType": "address",
          "name": "operator",
          "type": "address"
        },
        {
          "internalType": "bool",
          "name": "approved",
          "type": "bool"
        }
      ],
      "name": "setApprovalForAll",
      "outputs": [],
      "stateMutability": "nonpayable",
      "type": "function"
    },
    {
      "inputs": [],
      "name": "symbol",
      "outputs": [
        {
          "internalType": "string",
          "name": "",
          "type": "string"
        }
      ],
      "stateMutability": "view",
      "type": "function"
    },
    {
      "inputs": [
        {
          "internalType": "uint256",
          "name": "index",
          "type": "uint256"
        }
      ],
      "name": "tokenByIndex",
      "outputs": [
        {
          "internalType": "uint256",
          "name": "",
          "type": "uint256"
        }
      ],
      "stateMutability": "view",
      "type": "function"
    },
    {
      "inputs": [
        {
          "internalType": "address",
          "name": "owner",
          "type": "address"
        },
        {
          "internalType": "uint256",
          "name": "index",
          "type": "uint256"
        }
      ],
      "name": "tokenOfOwnerByIndex",
      "outputs": [
        {
          "internalType": "uint256",
          "name": "",
          "type": "uint256"
        }
      ],
      "stateMutability": "view",
      "type": "function"
    },
    {
      "inputs": [
        {
          "internalType": "uint256",
          "name": "",
          "type": "uint256"
        }
      ],
      "name": "tokenURIs",
      "outputs": [
        {
          "internalType": "string",
          "name": "",
          "type": "string"
        }
      ],
      "stateMutability": "view",
      "type": "function"
    },
    {
      "inputs": [],
      "name": "totalSupply",
      "outputs": [
        {
          "internalType": "uint256",
          "name": "",
          "type": "uint256"
        }
      ],
      "stateMutability": "view",
      "type": "function"
    },
    {
      "inputs": [
        {
          "internalType": "address",
          "name": "from",
          "type": "address"
        },
        {
          "internalType": "address",
          "name": "to",
          "type": "address"
        },
        {
          "internalType": "uint256",
          "name": "tokenId",
          "type": "uint256"
        }
      ],
      "name": "transferFrom",
      "outputs": [],
      "stateMutability": "nonpayable",
      "type": "function"
    },
    {
      "inputs": [
        {
          "internalType": "bytes4",
          "name": "interfaceId",
          "type": "bytes4"
        }
      ],
      "name": "supportsInterface",
      "outputs": [
        {
          "internalType": "bool",
          "name": "",
          "type": "bool"
        }
      ],
      "stateMutability": "view",
      "type": "function"
    },
    {
      "inputs": [
        {
          "internalType": "uint256",
          "name": "tokenId",
          "type": "uint256"
        }
      ],
      "name": "tokenURI",
      "outputs": [
        {
          "internalType": "string",
          "name": "",
          "type": "string"
        }
      ],
      "stateMutability": "view",
      "type": "function"
    },
    {
      "inputs": [
        {
          "internalType": "string",
          "name": "_tokenURI",
          "type": "string"
        },
        {
          "internalType": "string",
          "name": "_name",
          "type": "string"
        },
        {
          "internalType": "string",
          "name": "_description",
          "type": "string"
        }
      ],
      "name": "createNFT",
      "outputs": [],
      "stateMutability": "nonpayable",
      "type": "function"
    },
    {
      "inputs": [
        {
          "internalType": "uint256",
          "name": "_id",
          "type": "uint256"
        },
        {
          "internalType": "address",
          "name": "_to",
          "type": "address"
        }
      ],
      "name": "transferNFT",
      "outputs": [],
      "stateMutability": "nonpayable",
      "type": "function"
    }
  ],
  "bytecode": "0x60806040523480156200001157600080fd5b506040518060400160405280600e81526020017f4e465420436f6c6c656374696f6e0000000000000000000000000000000000008152506040518060400160405280600381526020017f4e46540000000000000000000000000000000000000000000000000000000000815250816000908051906020019062000096929190620000b8565b508060019080519060200190620000af929190620000b8565b505050620001cc565b828054620000c69062000197565b90600052602060002090601f016020900481019282620000ea576000855562000136565b82601f106200010557805160ff191683800117855562000136565b8280016001018555821562000136579182015b828111156200013557825182559160200191906001019062000118565b5b50905062000145919062000149565b5090565b5b80821115620001645760008160009055506001016200014a565b5090565b7f4e487b7100000000000000000000000000000000000000000000000000000000600052602260045260246000fd5b60006002820490506001821680620001b057607f821691505b602082108103620001c657620001c562000168565b5b50919050565b6135c380620001dc6000396000f3fe608060405234801561001057600080fd5b506004361061012c5760003560e01c80636c8b703f116100ad5780639f8e9dbc116100715780639f8e9dbc1461037d578063a22cb46514610399578063b88d4fde146103b5578063c87b56dd146103d1578063e985e9c5146104015761012c565b80636c8b703f146102b157806370a08231146102e15780639036c0501461031157806393013ad71461032d57806395d89b411461035f5761012c565b806323b872dd116100f457806323b872dd146101e95780632f745c591461020557806342842e0e146102355780634f6ccce7146102515780636352211e146102815761012c565b806301ffc9a71461013157806306fdde0314610161578063081812fc1461017f578063095ea7b3146101af57806318160ddd146101cb575b600080fd5b61014b6004803603810190610146919061228d565b610431565b60405161015891906122d5565b60405180910390f35b610169610443565b6040516101769190612389565b60405180910390f35b610199600480360381019061019491906123e1565b6104d5565b6040516101a6919061244f565b60405180910390f35b6101c960048036038101906101c49190612496565b61051b565b005b6101d3610632565b6040516101e091906124e5565b60405180910390f35b61020360048036038101906101fe9190612500565b61063f565b005b61021f600480360381019061021a9190612496565b61069f565b60405161022c91906124e5565b60405180910390f35b61024f600480360381019061024a9190612500565b610744565b005b61026b600480360381019061026691906123e1565b610764565b60405161027891906124e5565b60405180910390f35b61029b600480360381019061029691906123e1565b6107d5565b6040516102a8919061244f565b60405180910390f35b6102cb60048036038101906102c691906123e1565b61085b565b6040516102d89190612389565b60405180910390f35b6102fb60048036038101906102f69190612553565b610907565b60405161030891906124e5565b60405180910390f35b61032b60048036038101906103269190612580565b6109be565b005b610347600480360381019061034291906123e1565b610a7e565b604051610356939291906125c0565b60405180910390f35b610367610bb8565b6040516103749190612389565b60405180910390f35b6103976004803603810190610392919061273a565b610c4a565b005b6103b360048036038101906103ae919061280d565b610e1d565b005b6103cf60048036038101906103ca91906128ee565b610e33565b005b6103eb60048036038101906103e691906123e1565b610e95565b6040516103f89190612389565b60405180910390f35b61041b60048036038101906104169190612971565b610f82565b60405161042891906122d5565b60405180910390f35b600061043c82611016565b9050919050565b606060008054610452906129e0565b80601f016020809104026020016040519081016040528092919081815260200182805461047e906129e0565b80156104cb5780601f106104a0576101008083540402835291602001916104cb565b820191906000526020600020905b8154815290600101906020018083116104ae57829003601f168201915b5050505050905090565b60006104e082611090565b6004600083815260200190815260200160002060009054906101000a900473ffffffffffffffffffffffffffffffffffffffff169050919050565b6000610526826107d5565b90508073ffffffffffffffffffffffffffffffffffffffff168373ffffffffffffffffffffffffffffffffffffffff1603610596576040517f08c379a000000000000000000000000000000000000000000000000000000000815260040161058d90612a83565b60405180910390fd5b8073ffffffffffffffffffffffffffffffffffffffff166105b56110db565b73ffffffffffffffffffffffffffffffffffffffff1614806105e457506105e3816105de6110db565b610f82565b5b610623576040517f08c379a000000000000000000000000000000000000000000000000000000000815260040161061a90612b15565b60405180910390fd5b61062d83836110e3565b505050565b6000600880549050905090565b61065061064a6110db565b8261119c565b61068f576040517f08c379a000000000000000000000000000000000000000000000000000000000815260040161068690612ba7565b60405180910390fd5b61069a838383611231565b505050565b60006106aa83610907565b82106106eb576040517f08c379a00000000000000000000000000000000000000000000000000000000081526004016106e290612c39565b60405180910390fd5b600660008473ffffffffffffffffffffffffffffffffffffffff1673ffffffffffffffffffffffffffffffffffffffff168152602001908152602001600020600083815260200190815260200160002054905092915050565b61075f83838360405180602001604052806000815250610e33565b505050565b600061076e610632565b82106107af576040517f08c379a00000000000000000000000000000000000000000000000000000000081526004016107a690612ccb565b60405180910390fd5b600882815481106107c3576107c2612ceb565b5b90600052602060002001549050919050565b6000806107e18361152a565b9050600073ffffffffffffffffffffffffffffffffffffffff168173ffffffffffffffffffffffffffffffffffffffff1603610852576040517f08c379a000000000000000000000000000000000000000000000000000000000815260040161084990612d66565b60405180910390fd5b80915050919050565b600a818154811061086b57600080fd5b906000526020600020016000915090508054610886906129e0565b80601f01602080910402602001604051908101604052809291908181526020018280546108b2906129e0565b80156108ff5780601f106108d4576101008083540402835291602001916108ff565b820191906000526020600020905b8154815290600101906020018083116108e257829003601f168201915b505050505081565b60008073ffffffffffffffffffffffffffffffffffffffff168273ffffffffffffffffffffffffffffffffffffffff1603610977576040517f08c379a000000000000000000000000000000000000000000000000000000000815260040161096e90612df8565b60405180910390fd5b600360008373ffffffffffffffffffffffffffffffffffffffff1673ffffffffffffffffffffffffffffffffffffffff168152602001908152602001600020549050919050565b6109c7826107d5565b73ffffffffffffffffffffffffffffffffffffffff163373ffffffffffffffffffffffffffffffffffffffff1614610a34576040517f08c379a0000000000000000000000000000000000000000000000000000000008152600401610a2b90612e8a565b60405180910390fd5b7fabf08a939c0ab414320c70d0208a04939b7a361fe5a77e0996c5da582e19e70d338284604051610a6793929190612eaa565b60405180910390a1610a7a338284610744565b5050565b600d602052806000526040600020600091509050806000015490806001018054610aa7906129e0565b80601f0160208091040260200160405190810160405280929190818152602001828054610ad3906129e0565b8015610b205780601f10610af557610100808354040283529160200191610b20565b820191906000526020600020905b815481529060010190602001808311610b0357829003601f168201915b505050505090806002018054610b35906129e0565b80601f0160208091040260200160405190810160405280929190818152602001828054610b61906129e0565b8015610bae5780601f10610b8357610100808354040283529160200191610bae565b820191906000526020600020905b815481529060010190602001808311610b9157829003601f168201915b5050505050905083565b606060018054610bc7906129e0565b80601f0160208091040260200160405190810160405280929190818152602001828054610bf3906129e0565b8015610c405780601f10610c1557610100808354040283529160200191610c40565b820191906000526020600020905b815481529060010190602001808311610c2357829003601f168201915b5050505050905090565b600b83604051610c5a9190612f1d565b908152602001604051809103902060009054906101000a900460ff1615610cb6576040517f08c379a0000000000000000000000000000000000000000000000000000000008152600401610cad90612f80565b60405180910390fd5b600a83908060018154018082558091505060019003906000526020600020016000909190919091509080519060200190610cf192919061217e565b506000600a80549050905083600c60008381526020019081526020016000209080519060200190610d2392919061217e565b50610d2e3382611567565b6001600b85604051610d409190612f1d565b908152602001604051809103902060006101000a81548160ff021916908315150217905550604051806060016040528082815260200184815260200183815250600d6000838152602001908152602001600020600082015181600001556020820151816001019080519060200190610db992919061217e565b506040820151816002019080519060200190610dd692919061217e565b509050507f7c8c941811430063f4d236d5a72faf08cb361cf852a9a0cb97e7c691554c102581858585604051610e0f9493929190612fa0565b60405180910390a150505050565b610e2f610e286110db565b8383611585565b5050565b610e44610e3e6110db565b8361119c565b610e83576040517f08c379a0000000000000000000000000000000000000000000000000000000008152600401610e7a90612ba7565b60405180910390fd5b610e8f848484846116f1565b50505050565b6060610ea08261174d565b610edf576040517f08c379a0000000000000000000000000000000000000000000000000000000008152600401610ed69061306c565b60405180910390fd5b600c60008381526020019081526020016000208054610efd906129e0565b80601f0160208091040260200160405190810160405280929190818152602001828054610f29906129e0565b8015610f765780601f10610f4b57610100808354040283529160200191610f76565b820191906000526020600020905b815481529060010190602001808311610f5957829003601f168201915b50505050509050919050565b6000600560008473ffffffffffffffffffffffffffffffffffffffff1673ffffffffffffffffffffffffffffffffffffffff16815260200190815260200160002060008373ffffffffffffffffffffffffffffffffffffffff1673ffffffffffffffffffffffffffffffffffffffff16815260200190815260200160002060009054906101000a900460ff16905092915050565b60007f780e9d63000000000000000000000000000000000000000000000000000000007bffffffffffffffffffffffffffffffffffffffffffffffffffffffff1916827bffffffffffffffffffffffffffffffffffffffffffffffffffffffff1916148061108957506110888261178e565b5b9050919050565b6110998161174d565b6110d8576040517f08c379a00000000000000000000000000000000000000000000000000000000081526004016110cf90612d66565b60405180910390fd5b50565b600033905090565b816004600083815260200190815260200160002060006101000a81548173ffffffffffffffffffffffffffffffffffffffff021916908373ffffffffffffffffffffffffffffffffffffffff160217905550808273ffffffffffffffffffffffffffffffffffffffff16611156836107d5565b73ffffffffffffffffffffffffffffffffffffffff167f8c5be1e5ebec7d5bd14f71427d1e84f3dd0314c0f7b2291e5b200ac8c7c3b92560405160405180910390a45050565b6000806111a8836107d5565b90508073ffffffffffffffffffffffffffffffffffffffff168473ffffffffffffffffffffffffffffffffffffffff1614806111ea57506111e98185610f82565b5b8061122857508373ffffffffffffffffffffffffffffffffffffffff16611210846104d5565b73ffffffffffffffffffffffffffffffffffffffff16145b91505092915050565b8273ffffffffffffffffffffffffffffffffffffffff16611251826107d5565b73ffffffffffffffffffffffffffffffffffffffff16146112a7576040517f08c379a000000000000000000000000000000000000000000000000000000000815260040161129e906130fe565b60405180910390fd5b600073ffffffffffffffffffffffffffffffffffffffff168273ffffffffffffffffffffffffffffffffffffffff1603611316576040517f08c379a000000000000000000000000000000000000000000000000000000000815260040161130d90613190565b60405180910390fd5b6113238383836001611870565b8273ffffffffffffffffffffffffffffffffffffffff16611343826107d5565b73ffffffffffffffffffffffffffffffffffffffff1614611399576040517f08c379a0000000000000000000000000000000000000000000000000000000008152600401611390906130fe565b60405180910390fd5b6004600082815260200190815260200160002060006101000a81549073ffffffffffffffffffffffffffffffffffffffff02191690556001600360008573ffffffffffffffffffffffffffffffffffffffff1673ffffffffffffffffffffffffffffffffffffffff168152602001908152602001600020600082825403925050819055506001600360008473ffffffffffffffffffffffffffffffffffffffff1673ffffffffffffffffffffffffffffffffffffffff16815260200190815260200160002060008282540192505081905550816002600083815260200190815260200160002060006101000a81548173ffffffffffffffffffffffffffffffffffffffff021916908373ffffffffffffffffffffffffffffffffffffffff160217905550808273ffffffffffffffffffffffffffffffffffffffff168473ffffffffffffffffffffffffffffffffffffffff167fddf252ad1be2c89b69c2b068fc378daa952ba7f163c4a11628f55a4df523b3ef60405160405180910390a46115258383836001611882565b505050565b60006002600083815260200190815260200160002060009054906101000a900473ffffffffffffffffffffffffffffffffffffffff169050919050565b611581828260405180602001604052806000815250611888565b5050565b8173ffffffffffffffffffffffffffffffffffffffff168373ffffffffffffffffffffffffffffffffffffffff16036115f3576040517f08c379a00000000000000000000000000000000000000000000000000000000081526004016115ea906131fc565b60405180910390fd5b80600560008573ffffffffffffffffffffffffffffffffffffffff1673ffffffffffffffffffffffffffffffffffffffff16815260200190815260200160002060008473ffffffffffffffffffffffffffffffffffffffff1673ffffffffffffffffffffffffffffffffffffffff16815260200190815260200160002060006101000a81548160ff0219169083151502179055508173ffffffffffffffffffffffffffffffffffffffff168373ffffffffffffffffffffffffffffffffffffffff167f17307eab39ab6107e8899845ad3d59bd9653f200f220920489ca2b5937696c31836040516116e491906122d5565b60405180910390a3505050565b6116fc848484611231565b611708848484846118e3565b611747576040517f08c379a000000000000000000000000000000000000000000000000000000000815260040161173e9061328e565b60405180910390fd5b50505050565b60008073ffffffffffffffffffffffffffffffffffffffff1661176f8361152a565b73ffffffffffffffffffffffffffffffffffffffff1614159050919050565b60007f80ac58cd000000000000000000000000000000000000000000000000000000007bffffffffffffffffffffffffffffffffffffffffffffffffffffffff1916827bffffffffffffffffffffffffffffffffffffffffffffffffffffffff1916148061185957507f5b5e139f000000000000000000000000000000000000000000000000000000007bffffffffffffffffffffffffffffffffffffffffffffffffffffffff1916827bffffffffffffffffffffffffffffffffffffffffffffffffffffffff1916145b80611869575061186882611a6a565b5b9050919050565b61187c84848484611ad4565b50505050565b50505050565b6118928383611c32565b61189f60008484846118e3565b6118de576040517f08c379a00000000000000000000000000000000000000000000000000000000081526004016118d59061328e565b60405180910390fd5b505050565b60006119048473ffffffffffffffffffffffffffffffffffffffff16611e4f565b15611a5d578373ffffffffffffffffffffffffffffffffffffffff1663150b7a0261192d6110db565b8786866040518563ffffffff1660e01b815260040161194f9493929190613303565b6020604051808303816000875af192505050801561198b57506040513d601f19601f820116820180604052508101906119889190613364565b60015b611a0d573d80600081146119bb576040519150601f19603f3d011682016040523d82523d6000602084013e6119c0565b606091505b506000815103611a05576040517f08c379a00000000000000000000000000000000000000000000000000000000081526004016119fc9061328e565b60405180910390fd5b805181602001fd5b63150b7a0260e01b7bffffffffffffffffffffffffffffffffffffffffffffffffffffffff1916817bffffffffffffffffffffffffffffffffffffffffffffffffffffffff191614915050611a62565b600190505b949350505050565b60007f01ffc9a7000000000000000000000000000000000000000000000000000000007bffffffffffffffffffffffffffffffffffffffffffffffffffffffff1916827bffffffffffffffffffffffffffffffffffffffffffffffffffffffff1916149050919050565b611ae084848484611e72565b6001811115611b24576040517f08c379a0000000000000000000000000000000000000000000000000000000008152600401611b1b90613403565b60405180910390fd5b6000829050600073ffffffffffffffffffffffffffffffffffffffff168573ffffffffffffffffffffffffffffffffffffffff1603611b6b57611b6681611e78565b611baa565b8373ffffffffffffffffffffffffffffffffffffffff168573ffffffffffffffffffffffffffffffffffffffff1614611ba957611ba88582611ec1565b5b5b600073ffffffffffffffffffffffffffffffffffffffff168473ffffffffffffffffffffffffffffffffffffffff1603611bec57611be78161202e565b611c2b565b8473ffffffffffffffffffffffffffffffffffffffff168473ffffffffffffffffffffffffffffffffffffffff1614611c2a57611c2984826120ff565b5b5b5050505050565b600073ffffffffffffffffffffffffffffffffffffffff168273ffffffffffffffffffffffffffffffffffffffff1603611ca1576040517f08c379a0000000000000000000000000000000000000000000000000000000008152600401611c989061346f565b60405180910390fd5b611caa8161174d565b15611cea576040517f08c379a0000000000000000000000000000000000000000000000000000000008152600401611ce1906134db565b60405180910390fd5b611cf8600083836001611870565b611d018161174d565b15611d41576040517f08c379a0000000000000000000000000000000000000000000000000000000008152600401611d38906134db565b60405180910390fd5b6001600360008473ffffffffffffffffffffffffffffffffffffffff1673ffffffffffffffffffffffffffffffffffffffff16815260200190815260200160002060008282540192505081905550816002600083815260200190815260200160002060006101000a81548173ffffffffffffffffffffffffffffffffffffffff021916908373ffffffffffffffffffffffffffffffffffffffff160217905550808273ffffffffffffffffffffffffffffffffffffffff16600073ffffffffffffffffffffffffffffffffffffffff167fddf252ad1be2c89b69c2b068fc378daa952ba7f163c4a11628f55a4df523b3ef60405160405180910390a4611e4b600083836001611882565b5050565b6000808273ffffffffffffffffffffffffffffffffffffffff163b119050919050565b50505050565b6008805490506009600083815260200190815260200160002081905550600881908060018154018082558091505060019003906000526020600020016000909190919091505550565b60006001611ece84610907565b611ed8919061352a565b9050600060076000848152602001908152602001600020549050818114611fbd576000600660008673ffffffffffffffffffffffffffffffffffffffff1673ffffffffffffffffffffffffffffffffffffffff168152602001908152602001600020600084815260200190815260200160002054905080600660008773ffffffffffffffffffffffffffffffffffffffff1673ffffffffffffffffffffffffffffffffffffffff168152602001908152602001600020600084815260200190815260200160002081905550816007600083815260200190815260200160002081905550505b6007600084815260200190815260200160002060009055600660008573ffffffffffffffffffffffffffffffffffffffff1673ffffffffffffffffffffffffffffffffffffffff16815260200190815260200160002060008381526020019081526020016000206000905550505050565b60006001600880549050612042919061352a565b905060006009600084815260200190815260200160002054905060006008838154811061207257612071612ceb565b5b90600052602060002001549050806008838154811061209457612093612ceb565b5b9060005260206000200181905550816009600083815260200190815260200160002081905550600960008581526020019081526020016000206000905560088054806120e3576120e261355e565b5b6001900381819060005260206000200160009055905550505050565b600061210a83610907565b905081600660008573ffffffffffffffffffffffffffffffffffffffff1673ffffffffffffffffffffffffffffffffffffffff168152602001908152602001600020600083815260200190815260200160002081905550806007600084815260200190815260200160002081905550505050565b82805461218a906129e0565b90600052602060002090601f0160209004810192826121ac57600085556121f3565b82601f106121c557805160ff19168380011785556121f3565b828001600101855582156121f3579182015b828111156121f25782518255916020019190600101906121d7565b5b5090506122009190612204565b5090565b5b8082111561221d576000816000905550600101612205565b5090565b6000604051905090565b600080fd5b600080fd5b60007fffffffff0000000000000000000000000000000000000000000000000000000082169050919050565b61226a81612235565b811461227557600080fd5b50565b60008135905061228781612261565b92915050565b6000602082840312156122a3576122a261222b565b5b60006122b184828501612278565b91505092915050565b60008115159050919050565b6122cf816122ba565b82525050565b60006020820190506122ea60008301846122c6565b92915050565b600081519050919050565b600082825260208201905092915050565b60005b8381101561232a57808201518184015260208101905061230f565b83811115612339576000848401525b50505050565b6000601f19601f8301169050919050565b600061235b826122f0565b61236581856122fb565b935061237581856020860161230c565b61237e8161233f565b840191505092915050565b600060208201905081810360008301526123a38184612350565b905092915050565b6000819050919050565b6123be816123ab565b81146123c957600080fd5b50565b6000813590506123db816123b5565b92915050565b6000602082840312156123f7576123f661222b565b5b6000612405848285016123cc565b91505092915050565b600073ffffffffffffffffffffffffffffffffffffffff82169050919050565b60006124398261240e565b9050919050565b6124498161242e565b82525050565b60006020820190506124646000830184612440565b92915050565b6124738161242e565b811461247e57600080fd5b50565b6000813590506124908161246a565b92915050565b600080604083850312156124ad576124ac61222b565b5b60006124bb85828601612481565b92505060206124cc858286016123cc565b9150509250929050565b6124df816123ab565b82525050565b60006020820190506124fa60008301846124d6565b92915050565b6000806000606084860312156125195761251861222b565b5b600061252786828701612481565b935050602061253886828701612481565b9250506040612549868287016123cc565b9150509250925092565b6000602082840312156125695761256861222b565b5b600061257784828501612481565b91505092915050565b600080604083850312156125975761259661222b565b5b60006125a5858286016123cc565b92505060206125b685828601612481565b9150509250929050565b60006060820190506125d560008301866124d6565b81810360208301526125e78185612350565b905081810360408301526125fb8184612350565b9050949350505050565b600080fd5b600080fd5b7f4e487b7100000000000000000000000000000000000000000000000000000000600052604160045260246000fd5b6126478261233f565b810181811067ffffffffffffffff821117156126665761266561260f565b5b80604052505050565b6000612679612221565b9050612685828261263e565b919050565b600067ffffffffffffffff8211156126a5576126a461260f565b5b6126ae8261233f565b9050602081019050919050565b82818337600083830152505050565b60006126dd6126d88461268a565b61266f565b9050828152602081018484840111156126f9576126f861260a565b5b6127048482856126bb565b509392505050565b600082601f83011261272157612720612605565b5b81356127318482602086016126ca565b91505092915050565b6000806000606084860312156127535761275261222b565b5b600084013567ffffffffffffffff81111561277157612770612230565b5b61277d8682870161270c565b935050602084013567ffffffffffffffff81111561279e5761279d612230565b5b6127aa8682870161270c565b925050604084013567ffffffffffffffff8111156127cb576127ca612230565b5b6127d78682870161270c565b9150509250925092565b6127ea816122ba565b81146127f557600080fd5b50565b600081359050612807816127e1565b92915050565b600080604083850312156128245761282361222b565b5b600061283285828601612481565b9250506020612843858286016127f8565b9150509250929050565b600067ffffffffffffffff8211156128685761286761260f565b5b6128718261233f565b9050602081019050919050565b600061289161288c8461284d565b61266f565b9050828152602081018484840111156128ad576128ac61260a565b5b6128b88482856126bb565b509392505050565b600082601f8301126128d5576128d4612605565b5b81356128e584826020860161287e565b91505092915050565b600080600080608085870312156129085761290761222b565b5b600061291687828801612481565b945050602061292787828801612481565b9350506040612938878288016123cc565b925050606085013567ffffffffffffffff81111561295957612958612230565b5b612965878288016128c0565b91505092959194509250565b600080604083850312156129885761298761222b565b5b600061299685828601612481565b92505060206129a785828601612481565b9150509250929050565b7f4e487b7100000000000000000000000000000000000000000000000000000000600052602260045260246000fd5b600060028204905060018216806129f857607f821691505b602082108103612a0b57612a0a6129b1565b5b50919050565b7f4552433732313a20617070726f76616c20746f2063757272656e74206f776e6560008201527f7200000000000000000000000000000000000000000000000000000000000000602082015250565b6000612a6d6021836122fb565b9150612a7882612a11565b604082019050919050565b60006020820190508181036000830152612a9c81612a60565b9050919050565b7f4552433732313a20617070726f76652063616c6c6572206973206e6f7420746f60008201527f6b656e206f776e6572206f7220617070726f76656420666f7220616c6c000000602082015250565b6000612aff603d836122fb565b9150612b0a82612aa3565b604082019050919050565b60006020820190508181036000830152612b2e81612af2565b9050919050565b7f4552433732313a2063616c6c6572206973206e6f7420746f6b656e206f776e6560008201527f72206f7220617070726f76656400000000000000000000000000000000000000602082015250565b6000612b91602d836122fb565b9150612b9c82612b35565b604082019050919050565b60006020820190508181036000830152612bc081612b84565b9050919050565b7f455243373231456e756d657261626c653a206f776e657220696e646578206f7560008201527f74206f6620626f756e6473000000000000000000000000000000000000000000602082015250565b6000612c23602b836122fb565b9150612c2e82612bc7565b604082019050919050565b60006020820190508181036000830152612c5281612c16565b9050919050565b7f455243373231456e756d657261626c653a20676c6f62616c20696e646578206f60008201527f7574206f6620626f756e64730000000000000000000000000000000000000000602082015250565b6000612cb5602c836122fb565b9150612cc082612c59565b604082019050919050565b60006020820190508181036000830152612ce481612ca8565b9050919050565b7f4e487b7100000000000000000000000000000000000000000000000000000000600052603260045260246000fd5b7f4552433732313a20696e76616c696420746f6b656e2049440000000000000000600082015250565b6000612d506018836122fb565b9150612d5b82612d1a565b602082019050919050565b60006020820190508181036000830152612d7f81612d43565b9050919050565b7f4552433732313a2061646472657373207a65726f206973206e6f74206120766160008201527f6c6964206f776e65720000000000000000000000000000000000000000000000602082015250565b6000612de26029836122fb565b9150612ded82612d86565b604082019050919050565b60006020820190508181036000830152612e1181612dd5565b9050919050565b7f4f6e6c7920746865206f776e65722063616e207472616e73666572207468652060008201527f4e46542e00000000000000000000000000000000000000000000000000000000602082015250565b6000612e746024836122fb565b9150612e7f82612e18565b604082019050919050565b60006020820190508181036000830152612ea381612e67565b9050919050565b6000606082019050612ebf6000830186612440565b612ecc6020830185612440565b612ed960408301846124d6565b949350505050565b600081905092915050565b6000612ef7826122f0565b612f018185612ee1565b9350612f1181856020860161230c565b80840191505092915050565b6000612f298284612eec565b915081905092915050565b7f54686520746f6b656e205552492073686f756c6420626520756e697175650000600082015250565b6000612f6a601e836122fb565b9150612f7582612f34565b602082019050919050565b60006020820190508181036000830152612f9981612f5d565b9050919050565b6000608082019050612fb560008301876124d6565b8181036020830152612fc78186612350565b90508181036040830152612fdb8185612350565b90508181036060830152612fef8184612350565b905095945050505050565b7f4552433732314d657461646174613a2055524920717565727920666f72206e6f60008201527f6e6578697374656e7420746f6b656e0000000000000000000000000000000000602082015250565b6000613056602f836122fb565b915061306182612ffa565b604082019050919050565b6000602082019050818103600083015261308581613049565b9050919050565b7f4552433732313a207472616e736665722066726f6d20696e636f72726563742060008201527f6f776e6572000000000000000000000000000000000000000000000000000000602082015250565b60006130e86025836122fb565b91506130f38261308c565b604082019050919050565b60006020820190508181036000830152613117816130db565b9050919050565b7f4552433732313a207472616e7366657220746f20746865207a65726f2061646460008201527f7265737300000000000000000000000000000000000000000000000000000000602082015250565b600061317a6024836122fb565b91506131858261311e565b604082019050919050565b600060208201905081810360008301526131a98161316d565b9050919050565b7f4552433732313a20617070726f766520746f2063616c6c657200000000000000600082015250565b60006131e66019836122fb565b91506131f1826131b0565b602082019050919050565b60006020820190508181036000830152613215816131d9565b9050919050565b7f4552433732313a207472616e7366657220746f206e6f6e20455243373231526560008201527f63656976657220696d706c656d656e7465720000000000000000000000000000602082015250565b60006132786032836122fb565b91506132838261321c565b604082019050919050565b600060208201905081810360008301526132a78161326b565b9050919050565b600081519050919050565b600082825260208201905092915050565b60006132d5826132ae565b6132df81856132b9565b93506132ef81856020860161230c565b6132f88161233f565b840191505092915050565b60006080820190506133186000830187612440565b6133256020830186612440565b61333260408301856124d6565b818103606083015261334481846132ca565b905095945050505050565b60008151905061335e81612261565b92915050565b60006020828403121561337a5761337961222b565b5b60006133888482850161334f565b91505092915050565b7f455243373231456e756d657261626c653a20636f6e736563757469766520747260008201527f616e7366657273206e6f7420737570706f727465640000000000000000000000602082015250565b60006133ed6035836122fb565b91506133f882613391565b604082019050919050565b6000602082019050818103600083015261341c816133e0565b9050919050565b7f4552433732313a206d696e7420746f20746865207a65726f2061646472657373600082015250565b60006134596020836122fb565b915061346482613423565b602082019050919050565b600060208201905081810360008301526134888161344c565b9050919050565b7f4552433732313a20746f6b656e20616c7265616479206d696e74656400000000600082015250565b60006134c5601c836122fb565b91506134d08261348f565b602082019050919050565b600060208201905081810360008301526134f4816134b8565b9050919050565b7f4e487b7100000000000000000000000000000000000000000000000000000000600052601160045260246000fd5b6000613535826123ab565b9150613540836123ab565b925082821015613553576135526134fb565b5b828203905092915050565b7f4e487b7100000000000000000000000000000000000000000000000000000000600052603160045260246000fdfea2646970667358221220fc01c5799afe62413a79aab3d7ab4ea537e94bcdcee72a90de1f9d81514e700464736f6c634300080e0033",
  "immutableReferences": {},
  "source": "pragma solidity ^0.8.0;\n\nimport \"@openzeppelin/contracts/token/ERC721/ERC721.sol\";\nimport \"@openzeppelin/contracts/token/ERC721/extensions/ERC721Enumerable.sol\";\n\ncontract NFTCollection is ERC721, ERC721Enumerable {\n  string[] public tokenURIs;\n  mapping(string => bool) _tokenURIExists;\n  mapping(uint => string) _tokenIdToTokenURI;\n  mapping(uint => tokenDetails) public _tokenIdToDetail;\n  \n  struct tokenDetails{\n    uint tokenId;\n    string name;\n    string description;\n  }\n\n  event NewNFTCollectionMint(uint id, string tokenURI, string name, string description);\n  event NFTTransferedByOwner(address from, address to, uint id);\n// todo: change symbol and name\n  constructor() \n    ERC721(\"NFT Collection\", \"NFT\") \n  {\n  }\n\n  function _beforeTokenTransfer(address from, address to, uint256 tokenId, uint256 batchSize) internal override(ERC721, ERC721Enumerable) {\n    super._beforeTokenTransfer(from, to, tokenId, batchSize);\n  }\n\n  function supportsInterface(bytes4 interfaceId) public view override(ERC721, ERC721Enumerable) returns (bool) {\n    return super.supportsInterface(interfaceId);\n  }\n\n  function tokenURI(uint256 tokenId) public override view returns (string memory) {\n    require(_exists(tokenId), 'ERC721Metadata: URI query for nonexistent token');\n    return _tokenIdToTokenURI[tokenId];\n  }\n\n  function createNFT(string memory _tokenURI, string memory _name, string memory _description) public {\n    require(!_tokenURIExists[_tokenURI], 'The token URI should be unique');\n    tokenURIs.push(_tokenURI);    \n    uint _id = tokenURIs.length;\n    _tokenIdToTokenURI[_id] = _tokenURI;\n    _safeMint(msg.sender, _id);\n    _tokenURIExists[_tokenURI] = true;\n    _tokenIdToDetail[_id] = tokenDetails(_id,_name,_description);\n    emit NewNFTCollectionMint(_id, _tokenURI,_name, _description);\n  }\n\n  function transferNFT(uint _id, address _to) public {\n    require(msg.sender == super.ownerOf(_id), 'Only the owner can transfer the NFT.');\n    emit NFTTransferedByOwner(msg.sender, _to, _id);\n    return super.safeTransferFrom(msg.sender, _to, _id);\n  }\n}",
  "sourcePath": "/Users/ruirui/codes/solidity/projects/NFTMarketPlace/contracts/NFTCollection.sol",
  "compiler": {
    "name": "solc",
    "version": "0.8.14+commit.80d49f37.Emscripten.clang"
  },
  "schemaVersion": "3.4.7",
  "updatedAt": "2023-05-05T18:54:52.622Z",
  "devdoc": {
    "kind": "dev",
    "methods": {
      "approve(address,uint256)": {
        "details": "See {IERC721-approve}."
      },
      "balanceOf(address)": {
        "details": "See {IERC721-balanceOf}."
      },
      "getApproved(uint256)": {
        "details": "See {IERC721-getApproved}."
      },
      "isApprovedForAll(address,address)": {
        "details": "See {IERC721-isApprovedForAll}."
      },
      "name()": {
        "details": "See {IERC721Metadata-name}."
      },
      "ownerOf(uint256)": {
        "details": "See {IERC721-ownerOf}."
      },
      "safeTransferFrom(address,address,uint256)": {
        "details": "See {IERC721-safeTransferFrom}."
      },
      "safeTransferFrom(address,address,uint256,bytes)": {
        "details": "See {IERC721-safeTransferFrom}."
      },
      "setApprovalForAll(address,bool)": {
        "details": "See {IERC721-setApprovalForAll}."
      },
      "symbol()": {
        "details": "See {IERC721Metadata-symbol}."
      },
      "tokenByIndex(uint256)": {
        "details": "See {IERC721Enumerable-tokenByIndex}."
      },
      "tokenOfOwnerByIndex(address,uint256)": {
        "details": "See {IERC721Enumerable-tokenOfOwnerByIndex}."
      },
      "tokenURI(uint256)": {
        "details": "See {IERC721Metadata-tokenURI}."
      },
      "totalSupply()": {
        "details": "See {IERC721Enumerable-totalSupply}."
      },
      "transferFrom(address,address,uint256)": {
        "details": "See {IERC721-transferFrom}."
      }
    },
    "version": 1
  },
  "userdoc": {
    "kind": "user",
    "methods": {},
    "version": 1
  }
}