{
  "contractName": "NFTCollection",
  "abi": [
    {
      "inputs": [],
      "stateMutability": "nonpayable",
      "type": "constructor"
    },
    {
      "anonymous": false,
      "inputs": [
        {
          "indexed": true,
          "internalType": "address",
          "name": "owner",
          "type": "address"
        },
        {
          "indexed": true,
          "internalType": "address",
          "name": "approved",
          "type": "address"
        },
        {
          "indexed": true,
          "internalType": "uint256",
          "name": "tokenId",
          "type": "uint256"
        }
      ],
      "name": "Approval",
      "type": "event"
    },
    {
      "anonymous": false,
      "inputs": [
        {
          "indexed": true,
          "internalType": "address",
          "name": "owner",
          "type": "address"
        },
        {
          "indexed": true,
          "internalType": "address",
          "name": "operator",
          "type": "address"
        },
        {
          "indexed": false,
          "internalType": "bool",
          "name": "approved",
          "type": "bool"
        }
      ],
      "name": "ApprovalForAll",
      "type": "event"
    },
    {
      "anonymous": false,
      "inputs": [
        {
          "indexed": false,
          "internalType": "address",
          "name": "from",
          "type": "address"
        },
        {
          "indexed": false,
          "internalType": "address",
          "name": "to",
          "type": "address"
        },
        {
          "indexed": false,
          "internalType": "uint256",
          "name": "id",
          "type": "uint256"
        }
      ],
      "name": "NFTTransferedByOwner",
      "type": "event"
    },
    {
      "anonymous": false,
      "inputs": [
        {
          "indexed": false,
          "internalType": "uint256",
          "name": "id",
          "type": "uint256"
        },
        {
          "indexed": false,
          "internalType": "string",
          "name": "tokenURI",
          "type": "string"
        },
        {
          "indexed": false,
          "internalType": "string",
          "name": "name",
          "type": "string"
        },
        {
          "indexed": false,
          "internalType": "string",
          "name": "description",
          "type": "string"
        }
      ],
      "name": "NewNFTCollectionMint",
      "type": "event"
    },
    {
      "anonymous": false,
      "inputs": [
        {
          "indexed": true,
          "internalType": "address",
          "name": "previousOwner",
          "type": "address"
        },
        {
          "indexed": true,
          "internalType": "address",
          "name": "newOwner",
          "type": "address"
        }
      ],
      "name": "OwnershipTransferred",
      "type": "event"
    },
    {
      "anonymous": false,
      "inputs": [
        {
          "indexed": true,
          "internalType": "address",
          "name": "from",
          "type": "address"
        },
        {
          "indexed": true,
          "internalType": "address",
          "name": "to",
          "type": "address"
        },
        {
          "indexed": true,
          "internalType": "uint256",
          "name": "tokenId",
          "type": "uint256"
        }
      ],
      "name": "Transfer",
      "type": "event"
    },
    {
      "inputs": [
        {
          "internalType": "uint256",
          "name": "",
          "type": "uint256"
        }
      ],
      "name": "_tokenIdToDetail",
      "outputs": [
        {
          "internalType": "uint256",
          "name": "tokenId",
          "type": "uint256"
        },
        {
          "internalType": "string",
          "name": "name",
          "type": "string"
        },
        {
          "internalType": "string",
          "name": "description",
          "type": "string"
        }
      ],
      "stateMutability": "view",
      "type": "function"
    },
    {
      "inputs": [
        {
          "internalType": "address",
          "name": "to",
          "type": "address"
        },
        {
          "internalType": "uint256",
          "name": "tokenId",
          "type": "uint256"
        }
      ],
      "name": "approve",
      "outputs": [],
      "stateMutability": "nonpayable",
      "type": "function"
    },
    {
      "inputs": [
        {
          "internalType": "address",
          "name": "owner",
          "type": "address"
        }
      ],
      "name": "balanceOf",
      "outputs": [
        {
          "internalType": "uint256",
          "name": "",
          "type": "uint256"
        }
      ],
      "stateMutability": "view",
      "type": "function"
    },
    {
      "inputs": [
        {
          "internalType": "uint256",
          "name": "tokenId",
          "type": "uint256"
        }
      ],
      "name": "getApproved",
      "outputs": [
        {
          "internalType": "address",
          "name": "",
          "type": "address"
        }
      ],
      "stateMutability": "view",
      "type": "function"
    },
    {
      "inputs": [
        {
          "internalType": "address",
          "name": "owner",
          "type": "address"
        },
        {
          "internalType": "address",
          "name": "operator",
          "type": "address"
        }
      ],
      "name": "isApprovedForAll",
      "outputs": [
        {
          "internalType": "bool",
          "name": "",
          "type": "bool"
        }
      ],
      "stateMutability": "view",
      "type": "function"
    },
    {
      "inputs": [],
      "name": "name",
      "outputs": [
        {
          "internalType": "string",
          "name": "",
          "type": "string"
        }
      ],
      "stateMutability": "view",
      "type": "function"
    },
    {
      "inputs": [],
      "name": "owner",
      "outputs": [
        {
          "internalType": "address",
          "name": "",
          "type": "address"
        }
      ],
      "stateMutability": "view",
      "type": "function"
    },
    {
      "inputs": [
        {
          "internalType": "uint256",
          "name": "tokenId",
          "type": "uint256"
        }
      ],
      "name": "ownerOf",
      "outputs": [
        {
          "internalType": "address",
          "name": "",
          "type": "address"
        }
      ],
      "stateMutability": "view",
      "type": "function"
    },
    {
      "inputs": [],
      "name": "renounceOwnership",
      "outputs": [],
      "stateMutability": "nonpayable",
      "type": "function"
    },
    {
      "inputs": [
        {
          "internalType": "address",
          "name": "from",
          "type": "address"
        },
        {
          "internalType": "address",
          "name": "to",
          "type": "address"
        },
        {
          "internalType": "uint256",
          "name": "tokenId",
          "type": "uint256"
        }
      ],
      "name": "safeTransferFrom",
      "outputs": [],
      "stateMutability": "nonpayable",
      "type": "function"
    },
    {
      "inputs": [
        {
          "internalType": "address",
          "name": "from",
          "type": "address"
        },
        {
          "internalType": "address",
          "name": "to",
          "type": "address"
        },
        {
          "internalType": "uint256",
          "name": "tokenId",
          "type": "uint256"
        },
        {
          "internalType": "bytes",
          "name": "data",
          "type": "bytes"
        }
      ],
      "name": "safeTransferFrom",
      "outputs": [],
      "stateMutability": "nonpayable",
      "type": "function"
    },
    {
      "inputs": [
        {
          "internalType": "address",
          "name": "operator",
          "type": "address"
        },
        {
          "internalType": "bool",
          "name": "approved",
          "type": "bool"
        }
      ],
      "name": "setApprovalForAll",
      "outputs": [],
      "stateMutability": "nonpayable",
      "type": "function"
    },
    {
      "inputs": [],
      "name": "symbol",
      "outputs": [
        {
          "internalType": "string",
          "name": "",
          "type": "string"
        }
      ],
      "stateMutability": "view",
      "type": "function"
    },
    {
      "inputs": [
        {
          "internalType": "uint256",
          "name": "index",
          "type": "uint256"
        }
      ],
      "name": "tokenByIndex",
      "outputs": [
        {
          "internalType": "uint256",
          "name": "",
          "type": "uint256"
        }
      ],
      "stateMutability": "view",
      "type": "function"
    },
    {
      "inputs": [
        {
          "internalType": "address",
          "name": "owner",
          "type": "address"
        },
        {
          "internalType": "uint256",
          "name": "index",
          "type": "uint256"
        }
      ],
      "name": "tokenOfOwnerByIndex",
      "outputs": [
        {
          "internalType": "uint256",
          "name": "",
          "type": "uint256"
        }
      ],
      "stateMutability": "view",
      "type": "function"
    },
    {
      "inputs": [
        {
          "internalType": "uint256",
          "name": "",
          "type": "uint256"
        }
      ],
      "name": "tokenURIs",
      "outputs": [
        {
          "internalType": "string",
          "name": "",
          "type": "string"
        }
      ],
      "stateMutability": "view",
      "type": "function"
    },
    {
      "inputs": [],
      "name": "totalSupply",
      "outputs": [
        {
          "internalType": "uint256",
          "name": "",
          "type": "uint256"
        }
      ],
      "stateMutability": "view",
      "type": "function"
    },
    {
      "inputs": [
        {
          "internalType": "address",
          "name": "from",
          "type": "address"
        },
        {
          "internalType": "address",
          "name": "to",
          "type": "address"
        },
        {
          "internalType": "uint256",
          "name": "tokenId",
          "type": "uint256"
        }
      ],
      "name": "transferFrom",
      "outputs": [],
      "stateMutability": "nonpayable",
      "type": "function"
    },
    {
      "inputs": [
        {
          "internalType": "address",
          "name": "newOwner",
          "type": "address"
        }
      ],
      "name": "transferOwnership",
      "outputs": [],
      "stateMutability": "nonpayable",
      "type": "function"
    },
    {
      "inputs": [
        {
          "internalType": "bytes4",
          "name": "interfaceId",
          "type": "bytes4"
        }
      ],
      "name": "supportsInterface",
      "outputs": [
        {
          "internalType": "bool",
          "name": "",
          "type": "bool"
        }
      ],
      "stateMutability": "view",
      "type": "function"
    },
    {
      "inputs": [
        {
          "internalType": "uint256",
          "name": "tokenId",
          "type": "uint256"
        }
      ],
      "name": "tokenURI",
      "outputs": [
        {
          "internalType": "string",
          "name": "",
          "type": "string"
        }
      ],
      "stateMutability": "view",
      "type": "function"
    },
    {
      "inputs": [
        {
          "internalType": "string",
          "name": "_tokenURI",
          "type": "string"
        },
        {
          "internalType": "string",
          "name": "_name",
          "type": "string"
        },
        {
          "internalType": "string",
          "name": "_description",
          "type": "string"
        }
      ],
      "name": "createNFT",
      "outputs": [],
      "stateMutability": "nonpayable",
      "type": "function"
    },
    {
      "inputs": [
        {
          "internalType": "uint256",
          "name": "_id",
          "type": "uint256"
        },
        {
          "internalType": "address",
          "name": "_to",
          "type": "address"
        }
      ],
      "name": "transferNFT",
      "outputs": [],
      "stateMutability": "nonpayable",
      "type": "function"
    }
  ],
  "bytecode": "0x60806040523480156200001157600080fd5b506040518060400160405280600e81526020017f4e465420436f6c6c656374696f6e0000000000000000000000000000000000008152506040518060400160405280600381526020017f4e46540000000000000000000000000000000000000000000000000000000000815250816000908051906020019062000096929190620001a6565b508060019080519060200190620000af929190620001a6565b505050620000d2620000c6620000d860201b60201c565b620000e060201b60201c565b620002ba565b600033905090565b6000600a60009054906101000a900473ffffffffffffffffffffffffffffffffffffffff16905081600a60006101000a81548173ffffffffffffffffffffffffffffffffffffffff021916908373ffffffffffffffffffffffffffffffffffffffff1602179055508173ffffffffffffffffffffffffffffffffffffffff168173ffffffffffffffffffffffffffffffffffffffff167f8be0079c531659141344cd1fd0a4f28419497f9722a3daafe3b4186f6b6457e060405160405180910390a35050565b828054620001b49062000285565b90600052602060002090601f016020900481019282620001d8576000855562000224565b82601f10620001f357805160ff191683800117855562000224565b8280016001018555821562000224579182015b828111156200022357825182559160200191906001019062000206565b5b50905062000233919062000237565b5090565b5b808211156200025257600081600090555060010162000238565b5090565b7f4e487b7100000000000000000000000000000000000000000000000000000000600052602260045260246000fd5b600060028204905060018216806200029e57607f821691505b602082108103620002b457620002b362000256565b5b50919050565b61393380620002ca6000396000f3fe608060405234801561001057600080fd5b506004361061014d5760003560e01c806370a08231116100c35780639f8e9dbc1161007c5780639f8e9dbc146103c6578063a22cb465146103e2578063b88d4fde146103fe578063c87b56dd1461041a578063e985e9c51461044a578063f2fde38b1461047a5761014d565b806370a0823114610302578063715018a6146103325780638da5cb5b1461033c5780639036c0501461035a57806393013ad71461037657806395d89b41146103a85761014d565b806323b872dd1161011557806323b872dd1461020a5780632f745c591461022657806342842e0e146102565780634f6ccce7146102725780636352211e146102a25780636c8b703f146102d25761014d565b806301ffc9a71461015257806306fdde0314610182578063081812fc146101a0578063095ea7b3146101d057806318160ddd146101ec575b600080fd5b61016c600480360381019061016791906124ff565b610496565b6040516101799190612547565b60405180910390f35b61018a6104a8565b60405161019791906125fb565b60405180910390f35b6101ba60048036038101906101b59190612653565b61053a565b6040516101c791906126c1565b60405180910390f35b6101ea60048036038101906101e59190612708565b610580565b005b6101f4610697565b6040516102019190612757565b60405180910390f35b610224600480360381019061021f9190612772565b6106a4565b005b610240600480360381019061023b9190612708565b610704565b60405161024d9190612757565b60405180910390f35b610270600480360381019061026b9190612772565b6107a9565b005b61028c60048036038101906102879190612653565b6107c9565b6040516102999190612757565b60405180910390f35b6102bc60048036038101906102b79190612653565b61083a565b6040516102c991906126c1565b60405180910390f35b6102ec60048036038101906102e79190612653565b6108c0565b6040516102f991906125fb565b60405180910390f35b61031c600480360381019061031791906127c5565b61096c565b6040516103299190612757565b60405180910390f35b61033a610a23565b005b610344610a37565b60405161035191906126c1565b60405180910390f35b610374600480360381019061036f91906127f2565b610a61565b005b610390600480360381019061038b9190612653565b610b21565b60405161039f93929190612832565b60405180910390f35b6103b0610c5b565b6040516103bd91906125fb565b60405180910390f35b6103e060048036038101906103db91906129ac565b610ced565b005b6103fc60048036038101906103f79190612a7f565b610ec8565b005b61041860048036038101906104139190612b60565b610ede565b005b610434600480360381019061042f9190612653565b610f40565b60405161044191906125fb565b60405180910390f35b610464600480360381019061045f9190612be3565b61102d565b6040516104719190612547565b60405180910390f35b610494600480360381019061048f91906127c5565b6110c1565b005b60006104a182611144565b9050919050565b6060600080546104b790612c52565b80601f01602080910402602001604051908101604052809291908181526020018280546104e390612c52565b80156105305780601f1061050557610100808354040283529160200191610530565b820191906000526020600020905b81548152906001019060200180831161051357829003601f168201915b5050505050905090565b6000610545826111be565b6004600083815260200190815260200160002060009054906101000a900473ffffffffffffffffffffffffffffffffffffffff169050919050565b600061058b8261083a565b90508073ffffffffffffffffffffffffffffffffffffffff168373ffffffffffffffffffffffffffffffffffffffff16036105fb576040517f08c379a00000000000000000000000000000000000000000000000000000000081526004016105f290612cf5565b60405180910390fd5b8073ffffffffffffffffffffffffffffffffffffffff1661061a611209565b73ffffffffffffffffffffffffffffffffffffffff161480610649575061064881610643611209565b61102d565b5b610688576040517f08c379a000000000000000000000000000000000000000000000000000000000815260040161067f90612d87565b60405180910390fd5b6106928383611211565b505050565b6000600880549050905090565b6106b56106af611209565b826112ca565b6106f4576040517f08c379a00000000000000000000000000000000000000000000000000000000081526004016106eb90612e19565b60405180910390fd5b6106ff83838361135f565b505050565b600061070f8361096c565b8210610750576040517f08c379a000000000000000000000000000000000000000000000000000000000815260040161074790612eab565b60405180910390fd5b600660008473ffffffffffffffffffffffffffffffffffffffff1673ffffffffffffffffffffffffffffffffffffffff168152602001908152602001600020600083815260200190815260200160002054905092915050565b6107c483838360405180602001604052806000815250610ede565b505050565b60006107d3610697565b8210610814576040517f08c379a000000000000000000000000000000000000000000000000000000000815260040161080b90612f3d565b60405180910390fd5b6008828154811061082857610827612f5d565b5b90600052602060002001549050919050565b60008061084683611658565b9050600073ffffffffffffffffffffffffffffffffffffffff168173ffffffffffffffffffffffffffffffffffffffff16036108b7576040517f08c379a00000000000000000000000000000000000000000000000000000000081526004016108ae90612fd8565b60405180910390fd5b80915050919050565b600b81815481106108d057600080fd5b9060005260206000200160009150905080546108eb90612c52565b80601f016020809104026020016040519081016040528092919081815260200182805461091790612c52565b80156109645780601f1061093957610100808354040283529160200191610964565b820191906000526020600020905b81548152906001019060200180831161094757829003601f168201915b505050505081565b60008073ffffffffffffffffffffffffffffffffffffffff168273ffffffffffffffffffffffffffffffffffffffff16036109dc576040517f08c379a00000000000000000000000000000000000000000000000000000000081526004016109d39061306a565b60405180910390fd5b600360008373ffffffffffffffffffffffffffffffffffffffff1673ffffffffffffffffffffffffffffffffffffffff168152602001908152602001600020549050919050565b610a2b611695565b610a356000611713565b565b6000600a60009054906101000a900473ffffffffffffffffffffffffffffffffffffffff16905090565b610a6a8261083a565b73ffffffffffffffffffffffffffffffffffffffff163373ffffffffffffffffffffffffffffffffffffffff1614610ad7576040517f08c379a0000000000000000000000000000000000000000000000000000000008152600401610ace906130fc565b60405180910390fd5b7fabf08a939c0ab414320c70d0208a04939b7a361fe5a77e0996c5da582e19e70d338284604051610b0a9392919061311c565b60405180910390a1610b1d3382846107a9565b5050565b600e602052806000526040600020600091509050806000015490806001018054610b4a90612c52565b80601f0160208091040260200160405190810160405280929190818152602001828054610b7690612c52565b8015610bc35780601f10610b9857610100808354040283529160200191610bc3565b820191906000526020600020905b815481529060010190602001808311610ba657829003601f168201915b505050505090806002018054610bd890612c52565b80601f0160208091040260200160405190810160405280929190818152602001828054610c0490612c52565b8015610c515780601f10610c2657610100808354040283529160200191610c51565b820191906000526020600020905b815481529060010190602001808311610c3457829003601f168201915b5050505050905083565b606060018054610c6a90612c52565b80601f0160208091040260200160405190810160405280929190818152602001828054610c9690612c52565b8015610ce35780601f10610cb857610100808354040283529160200191610ce3565b820191906000526020600020905b815481529060010190602001808311610cc657829003601f168201915b5050505050905090565b610cf5611695565b600c83604051610d05919061318f565b908152602001604051809103902060009054906101000a900460ff1615610d61576040517f08c379a0000000000000000000000000000000000000000000000000000000008152600401610d58906131f2565b60405180910390fd5b600b83908060018154018082558091505060019003906000526020600020016000909190919091509080519060200190610d9c9291906123f0565b506000600b80549050905083600d60008381526020019081526020016000209080519060200190610dce9291906123f0565b50610dd933826117d9565b6001600c85604051610deb919061318f565b908152602001604051809103902060006101000a81548160ff021916908315150217905550604051806060016040528082815260200184815260200183815250600e6000838152602001908152602001600020600082015181600001556020820151816001019080519060200190610e649291906123f0565b506040820151816002019080519060200190610e819291906123f0565b509050507f7c8c941811430063f4d236d5a72faf08cb361cf852a9a0cb97e7c691554c102581858585604051610eba9493929190613212565b60405180910390a150505050565b610eda610ed3611209565b83836117f7565b5050565b610eef610ee9611209565b836112ca565b610f2e576040517f08c379a0000000000000000000000000000000000000000000000000000000008152600401610f2590612e19565b60405180910390fd5b610f3a84848484611963565b50505050565b6060610f4b826119bf565b610f8a576040517f08c379a0000000000000000000000000000000000000000000000000000000008152600401610f81906132de565b60405180910390fd5b600d60008381526020019081526020016000208054610fa890612c52565b80601f0160208091040260200160405190810160405280929190818152602001828054610fd490612c52565b80156110215780601f10610ff657610100808354040283529160200191611021565b820191906000526020600020905b81548152906001019060200180831161100457829003601f168201915b50505050509050919050565b6000600560008473ffffffffffffffffffffffffffffffffffffffff1673ffffffffffffffffffffffffffffffffffffffff16815260200190815260200160002060008373ffffffffffffffffffffffffffffffffffffffff1673ffffffffffffffffffffffffffffffffffffffff16815260200190815260200160002060009054906101000a900460ff16905092915050565b6110c9611695565b600073ffffffffffffffffffffffffffffffffffffffff168173ffffffffffffffffffffffffffffffffffffffff1603611138576040517f08c379a000000000000000000000000000000000000000000000000000000000815260040161112f90613370565b60405180910390fd5b61114181611713565b50565b60007f780e9d63000000000000000000000000000000000000000000000000000000007bffffffffffffffffffffffffffffffffffffffffffffffffffffffff1916827bffffffffffffffffffffffffffffffffffffffffffffffffffffffff191614806111b757506111b682611a00565b5b9050919050565b6111c7816119bf565b611206576040517f08c379a00000000000000000000000000000000000000000000000000000000081526004016111fd90612fd8565b60405180910390fd5b50565b600033905090565b816004600083815260200190815260200160002060006101000a81548173ffffffffffffffffffffffffffffffffffffffff021916908373ffffffffffffffffffffffffffffffffffffffff160217905550808273ffffffffffffffffffffffffffffffffffffffff166112848361083a565b73ffffffffffffffffffffffffffffffffffffffff167f8c5be1e5ebec7d5bd14f71427d1e84f3dd0314c0f7b2291e5b200ac8c7c3b92560405160405180910390a45050565b6000806112d68361083a565b90508073ffffffffffffffffffffffffffffffffffffffff168473ffffffffffffffffffffffffffffffffffffffff1614806113185750611317818561102d565b5b8061135657508373ffffffffffffffffffffffffffffffffffffffff1661133e8461053a565b73ffffffffffffffffffffffffffffffffffffffff16145b91505092915050565b8273ffffffffffffffffffffffffffffffffffffffff1661137f8261083a565b73ffffffffffffffffffffffffffffffffffffffff16146113d5576040517f08c379a00000000000000000000000000000000000000000000000000000000081526004016113cc90613402565b60405180910390fd5b600073ffffffffffffffffffffffffffffffffffffffff168273ffffffffffffffffffffffffffffffffffffffff1603611444576040517f08c379a000000000000000000000000000000000000000000000000000000000815260040161143b90613494565b60405180910390fd5b6114518383836001611ae2565b8273ffffffffffffffffffffffffffffffffffffffff166114718261083a565b73ffffffffffffffffffffffffffffffffffffffff16146114c7576040517f08c379a00000000000000000000000000000000000000000000000000000000081526004016114be90613402565b60405180910390fd5b6004600082815260200190815260200160002060006101000a81549073ffffffffffffffffffffffffffffffffffffffff02191690556001600360008573ffffffffffffffffffffffffffffffffffffffff1673ffffffffffffffffffffffffffffffffffffffff168152602001908152602001600020600082825403925050819055506001600360008473ffffffffffffffffffffffffffffffffffffffff1673ffffffffffffffffffffffffffffffffffffffff16815260200190815260200160002060008282540192505081905550816002600083815260200190815260200160002060006101000a81548173ffffffffffffffffffffffffffffffffffffffff021916908373ffffffffffffffffffffffffffffffffffffffff160217905550808273ffffffffffffffffffffffffffffffffffffffff168473ffffffffffffffffffffffffffffffffffffffff167fddf252ad1be2c89b69c2b068fc378daa952ba7f163c4a11628f55a4df523b3ef60405160405180910390a46116538383836001611af4565b505050565b60006002600083815260200190815260200160002060009054906101000a900473ffffffffffffffffffffffffffffffffffffffff169050919050565b61169d611209565b73ffffffffffffffffffffffffffffffffffffffff166116bb610a37565b73ffffffffffffffffffffffffffffffffffffffff1614611711576040517f08c379a000000000000000000000000000000000000000000000000000000000815260040161170890613500565b60405180910390fd5b565b6000600a60009054906101000a900473ffffffffffffffffffffffffffffffffffffffff16905081600a60006101000a81548173ffffffffffffffffffffffffffffffffffffffff021916908373ffffffffffffffffffffffffffffffffffffffff1602179055508173ffffffffffffffffffffffffffffffffffffffff168173ffffffffffffffffffffffffffffffffffffffff167f8be0079c531659141344cd1fd0a4f28419497f9722a3daafe3b4186f6b6457e060405160405180910390a35050565b6117f3828260405180602001604052806000815250611afa565b5050565b8173ffffffffffffffffffffffffffffffffffffffff168373ffffffffffffffffffffffffffffffffffffffff1603611865576040517f08c379a000000000000000000000000000000000000000000000000000000000815260040161185c9061356c565b60405180910390fd5b80600560008573ffffffffffffffffffffffffffffffffffffffff1673ffffffffffffffffffffffffffffffffffffffff16815260200190815260200160002060008473ffffffffffffffffffffffffffffffffffffffff1673ffffffffffffffffffffffffffffffffffffffff16815260200190815260200160002060006101000a81548160ff0219169083151502179055508173ffffffffffffffffffffffffffffffffffffffff168373ffffffffffffffffffffffffffffffffffffffff167f17307eab39ab6107e8899845ad3d59bd9653f200f220920489ca2b5937696c31836040516119569190612547565b60405180910390a3505050565b61196e84848461135f565b61197a84848484611b55565b6119b9576040517f08c379a00000000000000000000000000000000000000000000000000000000081526004016119b0906135fe565b60405180910390fd5b50505050565b60008073ffffffffffffffffffffffffffffffffffffffff166119e183611658565b73ffffffffffffffffffffffffffffffffffffffff1614159050919050565b60007f80ac58cd000000000000000000000000000000000000000000000000000000007bffffffffffffffffffffffffffffffffffffffffffffffffffffffff1916827bffffffffffffffffffffffffffffffffffffffffffffffffffffffff19161480611acb57507f5b5e139f000000000000000000000000000000000000000000000000000000007bffffffffffffffffffffffffffffffffffffffffffffffffffffffff1916827bffffffffffffffffffffffffffffffffffffffffffffffffffffffff1916145b80611adb5750611ada82611cdc565b5b9050919050565b611aee84848484611d46565b50505050565b50505050565b611b048383611ea4565b611b116000848484611b55565b611b50576040517f08c379a0000000000000000000000000000000000000000000000000000000008152600401611b47906135fe565b60405180910390fd5b505050565b6000611b768473ffffffffffffffffffffffffffffffffffffffff166120c1565b15611ccf578373ffffffffffffffffffffffffffffffffffffffff1663150b7a02611b9f611209565b8786866040518563ffffffff1660e01b8152600401611bc19493929190613673565b6020604051808303816000875af1925050508015611bfd57506040513d601f19601f82011682018060405250810190611bfa91906136d4565b60015b611c7f573d8060008114611c2d576040519150601f19603f3d011682016040523d82523d6000602084013e611c32565b606091505b506000815103611c77576040517f08c379a0000000000000000000000000000000000000000000000000000000008152600401611c6e906135fe565b60405180910390fd5b805181602001fd5b63150b7a0260e01b7bffffffffffffffffffffffffffffffffffffffffffffffffffffffff1916817bffffffffffffffffffffffffffffffffffffffffffffffffffffffff191614915050611cd4565b600190505b949350505050565b60007f01ffc9a7000000000000000000000000000000000000000000000000000000007bffffffffffffffffffffffffffffffffffffffffffffffffffffffff1916827bffffffffffffffffffffffffffffffffffffffffffffffffffffffff1916149050919050565b611d52848484846120e4565b6001811115611d96576040517f08c379a0000000000000000000000000000000000000000000000000000000008152600401611d8d90613773565b60405180910390fd5b6000829050600073ffffffffffffffffffffffffffffffffffffffff168573ffffffffffffffffffffffffffffffffffffffff1603611ddd57611dd8816120ea565b611e1c565b8373ffffffffffffffffffffffffffffffffffffffff168573ffffffffffffffffffffffffffffffffffffffff1614611e1b57611e1a8582612133565b5b5b600073ffffffffffffffffffffffffffffffffffffffff168473ffffffffffffffffffffffffffffffffffffffff1603611e5e57611e59816122a0565b611e9d565b8473ffffffffffffffffffffffffffffffffffffffff168473ffffffffffffffffffffffffffffffffffffffff1614611e9c57611e9b8482612371565b5b5b5050505050565b600073ffffffffffffffffffffffffffffffffffffffff168273ffffffffffffffffffffffffffffffffffffffff1603611f13576040517f08c379a0000000000000000000000000000000000000000000000000000000008152600401611f0a906137df565b60405180910390fd5b611f1c816119bf565b15611f5c576040517f08c379a0000000000000000000000000000000000000000000000000000000008152600401611f539061384b565b60405180910390fd5b611f6a600083836001611ae2565b611f73816119bf565b15611fb3576040517f08c379a0000000000000000000000000000000000000000000000000000000008152600401611faa9061384b565b60405180910390fd5b6001600360008473ffffffffffffffffffffffffffffffffffffffff1673ffffffffffffffffffffffffffffffffffffffff16815260200190815260200160002060008282540192505081905550816002600083815260200190815260200160002060006101000a81548173ffffffffffffffffffffffffffffffffffffffff021916908373ffffffffffffffffffffffffffffffffffffffff160217905550808273ffffffffffffffffffffffffffffffffffffffff16600073ffffffffffffffffffffffffffffffffffffffff167fddf252ad1be2c89b69c2b068fc378daa952ba7f163c4a11628f55a4df523b3ef60405160405180910390a46120bd600083836001611af4565b5050565b6000808273ffffffffffffffffffffffffffffffffffffffff163b119050919050565b50505050565b6008805490506009600083815260200190815260200160002081905550600881908060018154018082558091505060019003906000526020600020016000909190919091505550565b600060016121408461096c565b61214a919061389a565b905060006007600084815260200190815260200160002054905081811461222f576000600660008673ffffffffffffffffffffffffffffffffffffffff1673ffffffffffffffffffffffffffffffffffffffff168152602001908152602001600020600084815260200190815260200160002054905080600660008773ffffffffffffffffffffffffffffffffffffffff1673ffffffffffffffffffffffffffffffffffffffff168152602001908152602001600020600084815260200190815260200160002081905550816007600083815260200190815260200160002081905550505b6007600084815260200190815260200160002060009055600660008573ffffffffffffffffffffffffffffffffffffffff1673ffffffffffffffffffffffffffffffffffffffff16815260200190815260200160002060008381526020019081526020016000206000905550505050565b600060016008805490506122b4919061389a565b90506000600960008481526020019081526020016000205490506000600883815481106122e4576122e3612f5d565b5b90600052602060002001549050806008838154811061230657612305612f5d565b5b906000526020600020018190555081600960008381526020019081526020016000208190555060096000858152602001908152602001600020600090556008805480612355576123546138ce565b5b6001900381819060005260206000200160009055905550505050565b600061237c8361096c565b905081600660008573ffffffffffffffffffffffffffffffffffffffff1673ffffffffffffffffffffffffffffffffffffffff168152602001908152602001600020600083815260200190815260200160002081905550806007600084815260200190815260200160002081905550505050565b8280546123fc90612c52565b90600052602060002090601f01602090048101928261241e5760008555612465565b82601f1061243757805160ff1916838001178555612465565b82800160010185558215612465579182015b82811115612464578251825591602001919060010190612449565b5b5090506124729190612476565b5090565b5b8082111561248f576000816000905550600101612477565b5090565b6000604051905090565b600080fd5b600080fd5b60007fffffffff0000000000000000000000000000000000000000000000000000000082169050919050565b6124dc816124a7565b81146124e757600080fd5b50565b6000813590506124f9816124d3565b92915050565b6000602082840312156125155761251461249d565b5b6000612523848285016124ea565b91505092915050565b60008115159050919050565b6125418161252c565b82525050565b600060208201905061255c6000830184612538565b92915050565b600081519050919050565b600082825260208201905092915050565b60005b8381101561259c578082015181840152602081019050612581565b838111156125ab576000848401525b50505050565b6000601f19601f8301169050919050565b60006125cd82612562565b6125d7818561256d565b93506125e781856020860161257e565b6125f0816125b1565b840191505092915050565b6000602082019050818103600083015261261581846125c2565b905092915050565b6000819050919050565b6126308161261d565b811461263b57600080fd5b50565b60008135905061264d81612627565b92915050565b6000602082840312156126695761266861249d565b5b60006126778482850161263e565b91505092915050565b600073ffffffffffffffffffffffffffffffffffffffff82169050919050565b60006126ab82612680565b9050919050565b6126bb816126a0565b82525050565b60006020820190506126d660008301846126b2565b92915050565b6126e5816126a0565b81146126f057600080fd5b50565b600081359050612702816126dc565b92915050565b6000806040838503121561271f5761271e61249d565b5b600061272d858286016126f3565b925050602061273e8582860161263e565b9150509250929050565b6127518161261d565b82525050565b600060208201905061276c6000830184612748565b92915050565b60008060006060848603121561278b5761278a61249d565b5b6000612799868287016126f3565b93505060206127aa868287016126f3565b92505060406127bb8682870161263e565b9150509250925092565b6000602082840312156127db576127da61249d565b5b60006127e9848285016126f3565b91505092915050565b600080604083850312156128095761280861249d565b5b60006128178582860161263e565b9250506020612828858286016126f3565b9150509250929050565b60006060820190506128476000830186612748565b818103602083015261285981856125c2565b9050818103604083015261286d81846125c2565b9050949350505050565b600080fd5b600080fd5b7f4e487b7100000000000000000000000000000000000000000000000000000000600052604160045260246000fd5b6128b9826125b1565b810181811067ffffffffffffffff821117156128d8576128d7612881565b5b80604052505050565b60006128eb612493565b90506128f782826128b0565b919050565b600067ffffffffffffffff82111561291757612916612881565b5b612920826125b1565b9050602081019050919050565b82818337600083830152505050565b600061294f61294a846128fc565b6128e1565b90508281526020810184848401111561296b5761296a61287c565b5b61297684828561292d565b509392505050565b600082601f83011261299357612992612877565b5b81356129a384826020860161293c565b91505092915050565b6000806000606084860312156129c5576129c461249d565b5b600084013567ffffffffffffffff8111156129e3576129e26124a2565b5b6129ef8682870161297e565b935050602084013567ffffffffffffffff811115612a1057612a0f6124a2565b5b612a1c8682870161297e565b925050604084013567ffffffffffffffff811115612a3d57612a3c6124a2565b5b612a498682870161297e565b9150509250925092565b612a5c8161252c565b8114612a6757600080fd5b50565b600081359050612a7981612a53565b92915050565b60008060408385031215612a9657612a9561249d565b5b6000612aa4858286016126f3565b9250506020612ab585828601612a6a565b9150509250929050565b600067ffffffffffffffff821115612ada57612ad9612881565b5b612ae3826125b1565b9050602081019050919050565b6000612b03612afe84612abf565b6128e1565b905082815260208101848484011115612b1f57612b1e61287c565b5b612b2a84828561292d565b509392505050565b600082601f830112612b4757612b46612877565b5b8135612b57848260208601612af0565b91505092915050565b60008060008060808587031215612b7a57612b7961249d565b5b6000612b88878288016126f3565b9450506020612b99878288016126f3565b9350506040612baa8782880161263e565b925050606085013567ffffffffffffffff811115612bcb57612bca6124a2565b5b612bd787828801612b32565b91505092959194509250565b60008060408385031215612bfa57612bf961249d565b5b6000612c08858286016126f3565b9250506020612c19858286016126f3565b9150509250929050565b7f4e487b7100000000000000000000000000000000000000000000000000000000600052602260045260246000fd5b60006002820490506001821680612c6a57607f821691505b602082108103612c7d57612c7c612c23565b5b50919050565b7f4552433732313a20617070726f76616c20746f2063757272656e74206f776e6560008201527f7200000000000000000000000000000000000000000000000000000000000000602082015250565b6000612cdf60218361256d565b9150612cea82612c83565b604082019050919050565b60006020820190508181036000830152612d0e81612cd2565b9050919050565b7f4552433732313a20617070726f76652063616c6c6572206973206e6f7420746f60008201527f6b656e206f776e6572206f7220617070726f76656420666f7220616c6c000000602082015250565b6000612d71603d8361256d565b9150612d7c82612d15565b604082019050919050565b60006020820190508181036000830152612da081612d64565b9050919050565b7f4552433732313a2063616c6c6572206973206e6f7420746f6b656e206f776e6560008201527f72206f7220617070726f76656400000000000000000000000000000000000000602082015250565b6000612e03602d8361256d565b9150612e0e82612da7565b604082019050919050565b60006020820190508181036000830152612e3281612df6565b9050919050565b7f455243373231456e756d657261626c653a206f776e657220696e646578206f7560008201527f74206f6620626f756e6473000000000000000000000000000000000000000000602082015250565b6000612e95602b8361256d565b9150612ea082612e39565b604082019050919050565b60006020820190508181036000830152612ec481612e88565b9050919050565b7f455243373231456e756d657261626c653a20676c6f62616c20696e646578206f60008201527f7574206f6620626f756e64730000000000000000000000000000000000000000602082015250565b6000612f27602c8361256d565b9150612f3282612ecb565b604082019050919050565b60006020820190508181036000830152612f5681612f1a565b9050919050565b7f4e487b7100000000000000000000000000000000000000000000000000000000600052603260045260246000fd5b7f4552433732313a20696e76616c696420746f6b656e2049440000000000000000600082015250565b6000612fc260188361256d565b9150612fcd82612f8c565b602082019050919050565b60006020820190508181036000830152612ff181612fb5565b9050919050565b7f4552433732313a2061646472657373207a65726f206973206e6f74206120766160008201527f6c6964206f776e65720000000000000000000000000000000000000000000000602082015250565b600061305460298361256d565b915061305f82612ff8565b604082019050919050565b6000602082019050818103600083015261308381613047565b9050919050565b7f4f6e6c7920746865206f776e65722063616e207472616e73666572207468652060008201527f4e46542e00000000000000000000000000000000000000000000000000000000602082015250565b60006130e660248361256d565b91506130f18261308a565b604082019050919050565b60006020820190508181036000830152613115816130d9565b9050919050565b600060608201905061313160008301866126b2565b61313e60208301856126b2565b61314b6040830184612748565b949350505050565b600081905092915050565b600061316982612562565b6131738185613153565b935061318381856020860161257e565b80840191505092915050565b600061319b828461315e565b915081905092915050565b7f54686520746f6b656e205552492073686f756c6420626520756e697175650000600082015250565b60006131dc601e8361256d565b91506131e7826131a6565b602082019050919050565b6000602082019050818103600083015261320b816131cf565b9050919050565b60006080820190506132276000830187612748565b818103602083015261323981866125c2565b9050818103604083015261324d81856125c2565b9050818103606083015261326181846125c2565b905095945050505050565b7f4552433732314d657461646174613a2055524920717565727920666f72206e6f60008201527f6e6578697374656e7420746f6b656e0000000000000000000000000000000000602082015250565b60006132c8602f8361256d565b91506132d38261326c565b604082019050919050565b600060208201905081810360008301526132f7816132bb565b9050919050565b7f4f776e61626c653a206e6577206f776e657220697320746865207a65726f206160008201527f6464726573730000000000000000000000000000000000000000000000000000602082015250565b600061335a60268361256d565b9150613365826132fe565b604082019050919050565b600060208201905081810360008301526133898161334d565b9050919050565b7f4552433732313a207472616e736665722066726f6d20696e636f72726563742060008201527f6f776e6572000000000000000000000000000000000000000000000000000000602082015250565b60006133ec60258361256d565b91506133f782613390565b604082019050919050565b6000602082019050818103600083015261341b816133df565b9050919050565b7f4552433732313a207472616e7366657220746f20746865207a65726f2061646460008201527f7265737300000000000000000000000000000000000000000000000000000000602082015250565b600061347e60248361256d565b915061348982613422565b604082019050919050565b600060208201905081810360008301526134ad81613471565b9050919050565b7f4f776e61626c653a2063616c6c6572206973206e6f7420746865206f776e6572600082015250565b60006134ea60208361256d565b91506134f5826134b4565b602082019050919050565b60006020820190508181036000830152613519816134dd565b9050919050565b7f4552433732313a20617070726f766520746f2063616c6c657200000000000000600082015250565b600061355660198361256d565b915061356182613520565b602082019050919050565b6000602082019050818103600083015261358581613549565b9050919050565b7f4552433732313a207472616e7366657220746f206e6f6e20455243373231526560008201527f63656976657220696d706c656d656e7465720000000000000000000000000000602082015250565b60006135e860328361256d565b91506135f38261358c565b604082019050919050565b60006020820190508181036000830152613617816135db565b9050919050565b600081519050919050565b600082825260208201905092915050565b60006136458261361e565b61364f8185613629565b935061365f81856020860161257e565b613668816125b1565b840191505092915050565b600060808201905061368860008301876126b2565b61369560208301866126b2565b6136a26040830185612748565b81810360608301526136b4818461363a565b905095945050505050565b6000815190506136ce816124d3565b92915050565b6000602082840312156136ea576136e961249d565b5b60006136f8848285016136bf565b91505092915050565b7f455243373231456e756d657261626c653a20636f6e736563757469766520747260008201527f616e7366657273206e6f7420737570706f727465640000000000000000000000602082015250565b600061375d60358361256d565b915061376882613701565b604082019050919050565b6000602082019050818103600083015261378c81613750565b9050919050565b7f4552433732313a206d696e7420746f20746865207a65726f2061646472657373600082015250565b60006137c960208361256d565b91506137d482613793565b602082019050919050565b600060208201905081810360008301526137f8816137bc565b9050919050565b7f4552433732313a20746f6b656e20616c7265616479206d696e74656400000000600082015250565b6000613835601c8361256d565b9150613840826137ff565b602082019050919050565b6000602082019050818103600083015261386481613828565b9050919050565b7f4e487b7100000000000000000000000000000000000000000000000000000000600052601160045260246000fd5b60006138a58261261d565b91506138b08361261d565b9250828210156138c3576138c261386b565b5b828203905092915050565b7f4e487b7100000000000000000000000000000000000000000000000000000000600052603160045260246000fdfea2646970667358221220b26177b9dd8b2bde766bb6792c7a75fa1169e78f4b49acc3728f9b0ef33e65de64736f6c634300080e0033",
  "immutableReferences": {},
  "source": "pragma solidity ^0.8.0;\n\nimport \"@openzeppelin/contracts/token/ERC721/ERC721.sol\";\nimport \"@openzeppelin/contracts/token/ERC721/extensions/ERC721Enumerable.sol\";\nimport \"@openzeppelin/contracts/access/Ownable.sol\";\n\ncontract NFTCollection is ERC721, ERC721Enumerable, Ownable {\n  string[] public tokenURIs;\n  mapping(string => bool) _tokenURIExists;\n  mapping(uint => string) _tokenIdToTokenURI;\n  mapping(uint => tokenDetails) public _tokenIdToDetail;\n  \n  struct tokenDetails{\n    uint tokenId;\n    string name;\n    string description;\n  }\n\n  event NewNFTCollectionMint(uint id, string tokenURI, string name, string description);\n  event NFTTransferedByOwner(address from, address to, uint id);\n\n  constructor() \n    ERC721(\"NFT Collection\", \"NFT\") \n  {\n  }\n\n  function _beforeTokenTransfer(address from, address to, uint256 tokenId, uint256 batchSize) internal override(ERC721, ERC721Enumerable) {\n    super._beforeTokenTransfer(from, to, tokenId, batchSize);\n  }\n\n  function supportsInterface(bytes4 interfaceId) public view override(ERC721, ERC721Enumerable) returns (bool) {\n    return super.supportsInterface(interfaceId);\n  }\n\n  function tokenURI(uint256 tokenId) public override view returns (string memory) {\n    require(_exists(tokenId), 'ERC721Metadata: URI query for nonexistent token');\n    return _tokenIdToTokenURI[tokenId];\n  }\n\n  function createNFT(string memory _tokenURI, string memory _name, string memory _description) public onlyOwner{\n    require(!_tokenURIExists[_tokenURI], 'The token URI should be unique');\n    tokenURIs.push(_tokenURI);    \n    uint _id = tokenURIs.length;\n    _tokenIdToTokenURI[_id] = _tokenURI;\n    _safeMint(msg.sender, _id);\n    _tokenURIExists[_tokenURI] = true;\n    _tokenIdToDetail[_id] = tokenDetails(_id,_name,_description);\n    emit NewNFTCollectionMint(_id, _tokenURI,_name, _description);\n  }\n\n  function transferNFT(uint _id, address _to) public {\n    require(msg.sender == super.ownerOf(_id), 'Only the owner can transfer the NFT.');\n    emit NFTTransferedByOwner(msg.sender, _to, _id);\n    return super.safeTransferFrom(msg.sender, _to, _id);\n  }\n}",
  "sourcePath": "/Users/ruirui/codes/solidity/projects/NFTMarketPlace/contracts/NFTCollection.sol",
  "compiler": {
    "name": "solc",
    "version": "0.8.14+commit.80d49f37.Emscripten.clang"
  },
  "schemaVersion": "3.4.7",
  "updatedAt": "2023-05-05T22:13:46.735Z",
  "devdoc": {
    "kind": "dev",
    "methods": {
      "approve(address,uint256)": {
        "details": "See {IERC721-approve}."
      },
      "balanceOf(address)": {
        "details": "See {IERC721-balanceOf}."
      },
      "getApproved(uint256)": {
        "details": "See {IERC721-getApproved}."
      },
      "isApprovedForAll(address,address)": {
        "details": "See {IERC721-isApprovedForAll}."
      },
      "name()": {
        "details": "See {IERC721Metadata-name}."
      },
      "owner()": {
        "details": "Returns the address of the current owner."
      },
      "ownerOf(uint256)": {
        "details": "See {IERC721-ownerOf}."
      },
      "renounceOwnership()": {
        "details": "Leaves the contract without owner. It will not be possible to call `onlyOwner` functions anymore. Can only be called by the current owner. NOTE: Renouncing ownership will leave the contract without an owner, thereby removing any functionality that is only available to the owner."
      },
      "safeTransferFrom(address,address,uint256)": {
        "details": "See {IERC721-safeTransferFrom}."
      },
      "safeTransferFrom(address,address,uint256,bytes)": {
        "details": "See {IERC721-safeTransferFrom}."
      },
      "setApprovalForAll(address,bool)": {
        "details": "See {IERC721-setApprovalForAll}."
      },
      "symbol()": {
        "details": "See {IERC721Metadata-symbol}."
      },
      "tokenByIndex(uint256)": {
        "details": "See {IERC721Enumerable-tokenByIndex}."
      },
      "tokenOfOwnerByIndex(address,uint256)": {
        "details": "See {IERC721Enumerable-tokenOfOwnerByIndex}."
      },
      "tokenURI(uint256)": {
        "details": "See {IERC721Metadata-tokenURI}."
      },
      "totalSupply()": {
        "details": "See {IERC721Enumerable-totalSupply}."
      },
      "transferFrom(address,address,uint256)": {
        "details": "See {IERC721-transferFrom}."
      },
      "transferOwnership(address)": {
        "details": "Transfers ownership of the contract to a new account (`newOwner`). Can only be called by the current owner."
      }
    },
    "version": 1
  },
  "userdoc": {
    "kind": "user",
    "methods": {},
    "version": 1
  }
}