{
  "contractName": "NFTMarketplace",
  "abi": [
    {
      "inputs": [
        {
          "internalType": "address",
          "name": "_nftCollection",
          "type": "address"
        }
      ],
      "stateMutability": "nonpayable",
      "type": "constructor"
    },
    {
      "anonymous": false,
      "inputs": [
        {
          "indexed": false,
          "internalType": "address",
          "name": "user",
          "type": "address"
        },
        {
          "indexed": false,
          "internalType": "uint256",
          "name": "amount",
          "type": "uint256"
        }
      ],
      "name": "ClaimFunds",
      "type": "event"
    },
    {
      "anonymous": false,
      "inputs": [
        {
          "indexed": false,
          "internalType": "uint256",
          "name": "purchaseId",
          "type": "uint256"
        },
        {
          "indexed": false,
          "internalType": "uint256",
          "name": "id",
          "type": "uint256"
        },
        {
          "indexed": false,
          "internalType": "address",
          "name": "user",
          "type": "address"
        },
        {
          "indexed": false,
          "internalType": "uint256",
          "name": "price",
          "type": "uint256"
        },
        {
          "indexed": false,
          "internalType": "bool",
          "name": "purchased",
          "type": "bool"
        },
        {
          "indexed": false,
          "internalType": "bool",
          "name": "removed",
          "type": "bool"
        }
      ],
      "name": "Purchase",
      "type": "event"
    },
    {
      "anonymous": false,
      "inputs": [
        {
          "indexed": false,
          "internalType": "uint256",
          "name": "purchaseId",
          "type": "uint256"
        },
        {
          "indexed": false,
          "internalType": "uint256",
          "name": "id",
          "type": "uint256"
        },
        {
          "indexed": false,
          "internalType": "address",
          "name": "owner",
          "type": "address"
        }
      ],
      "name": "PurchaseCancelled",
      "type": "event"
    },
    {
      "anonymous": false,
      "inputs": [
        {
          "indexed": false,
          "internalType": "uint256",
          "name": "purchaseId",
          "type": "uint256"
        },
        {
          "indexed": false,
          "internalType": "uint256",
          "name": "id",
          "type": "uint256"
        },
        {
          "indexed": false,
          "internalType": "address",
          "name": "newOwner",
          "type": "address"
        }
      ],
      "name": "PurchaseFilled",
      "type": "event"
    },
    {
      "stateMutability": "nonpayable",
      "type": "fallback"
    },
    {
      "inputs": [],
      "name": "purchaseCount",
      "outputs": [
        {
          "internalType": "uint256",
          "name": "",
          "type": "uint256"
        }
      ],
      "stateMutability": "view",
      "type": "function"
    },
    {
      "inputs": [
        {
          "internalType": "uint256",
          "name": "",
          "type": "uint256"
        }
      ],
      "name": "purchases",
      "outputs": [
        {
          "internalType": "uint256",
          "name": "purchaseId",
          "type": "uint256"
        },
        {
          "internalType": "uint256",
          "name": "id",
          "type": "uint256"
        },
        {
          "internalType": "address",
          "name": "user",
          "type": "address"
        },
        {
          "internalType": "uint256",
          "name": "price",
          "type": "uint256"
        },
        {
          "internalType": "bool",
          "name": "purchased",
          "type": "bool"
        },
        {
          "internalType": "bool",
          "name": "removed",
          "type": "bool"
        }
      ],
      "stateMutability": "view",
      "type": "function"
    },
    {
      "inputs": [
        {
          "internalType": "address",
          "name": "",
          "type": "address"
        }
      ],
      "name": "userFunds",
      "outputs": [
        {
          "internalType": "uint256",
          "name": "",
          "type": "uint256"
        }
      ],
      "stateMutability": "view",
      "type": "function"
    },
    {
      "inputs": [
        {
          "internalType": "uint256",
          "name": "_id",
          "type": "uint256"
        },
        {
          "internalType": "uint256",
          "name": "_price",
          "type": "uint256"
        }
      ],
      "name": "listNFTForSale",
      "outputs": [],
      "stateMutability": "nonpayable",
      "type": "function"
    },
    {
      "inputs": [
        {
          "internalType": "uint256",
          "name": "_purchaseId",
          "type": "uint256"
        }
      ],
      "name": "purchaseNFT",
      "outputs": [],
      "stateMutability": "payable",
      "type": "function"
    },
    {
      "inputs": [
        {
          "internalType": "uint256",
          "name": "_purchaseId",
          "type": "uint256"
        }
      ],
      "name": "removeNFTFromSale",
      "outputs": [],
      "stateMutability": "nonpayable",
      "type": "function"
    },
    {
      "inputs": [],
      "name": "claimFunds",
      "outputs": [],
      "stateMutability": "nonpayable",
      "type": "function"
    }
  ],
  "bytecode": "0x60806040523480156200001157600080fd5b506040516200159d3803806200159d8339818101604052810190620000379190620000e9565b80600360006101000a81548173ffffffffffffffffffffffffffffffffffffffff021916908373ffffffffffffffffffffffffffffffffffffffff160217905550506200011b565b600080fd5b600073ffffffffffffffffffffffffffffffffffffffff82169050919050565b6000620000b18262000084565b9050919050565b620000c381620000a4565b8114620000cf57600080fd5b50565b600081519050620000e381620000b8565b92915050565b6000602082840312156200010257620001016200007f565b5b60006200011284828501620000d2565b91505092915050565b611472806200012b6000396000f3fe6080604052600436106100745760003560e01c80638392fe311161004e5780638392fe311461010a578063a02e51071461014c578063ac30777314610175578063b2733b391461018c57610075565b8063150bde03146100865780632b85ed9c146100a25780638387c6e1146100cd57610075565b5b34801561008157600080fd5b600080fd5b6100a0600480360381019061009b9190610c1e565b6101b5565b005b3480156100ae57600080fd5b506100b76104fd565b6040516100c49190610c5a565b60405180910390f35b3480156100d957600080fd5b506100f460048036038101906100ef9190610cd3565b610503565b6040516101019190610c5a565b60405180910390f35b34801561011657600080fd5b50610131600480360381019061012c9190610c1e565b61051b565b60405161014396959493929190610d2a565b60405180910390f35b34801561015857600080fd5b50610173600480360381019061016e9190610c1e565b610591565b005b34801561018157600080fd5b5061018a610825565b005b34801561019857600080fd5b506101b360048036038101906101ae9190610d8b565b6109ec565b005b600060016000838152602001908152602001600020905081816000015414610212576040517f08c379a000000000000000000000000000000000000000000000000000000000815260040161020990610e28565b60405180910390fd5b3373ffffffffffffffffffffffffffffffffffffffff168160020160009054906101000a900473ffffffffffffffffffffffffffffffffffffffff1673ffffffffffffffffffffffffffffffffffffffff16036102a4576040517f08c379a000000000000000000000000000000000000000000000000000000000815260040161029b90610eba565b60405180910390fd5b8060040160009054906101000a900460ff16156102f6576040517f08c379a00000000000000000000000000000000000000000000000000000000081526004016102ed90610f4c565b60405180910390fd5b8060040160019054906101000a900460ff1615610348576040517f08c379a000000000000000000000000000000000000000000000000000000000815260040161033f90610fde565b60405180910390fd5b8060030154341461038e576040517f08c379a000000000000000000000000000000000000000000000000000000000815260040161038590611070565b60405180910390fd5b600360009054906101000a900473ffffffffffffffffffffffffffffffffffffffff1673ffffffffffffffffffffffffffffffffffffffff166323b872dd303384600101546040518463ffffffff1660e01b81526004016103f193929190611090565b600060405180830381600087803b15801561040b57600080fd5b505af115801561041f573d6000803e3d6000fd5b5050505060018160040160006101000a81548160ff02191690831515021790555034600260008360020160009054906101000a900473ffffffffffffffffffffffffffffffffffffffff1673ffffffffffffffffffffffffffffffffffffffff1673ffffffffffffffffffffffffffffffffffffffff16815260200190815260200160002060008282546104b391906110f6565b925050819055507fe2590c18c537795eed304d2fc7817506c59d57b9a59c3ffff4e1abf8c12bfdee828260010154336040516104f19392919061114c565b60405180910390a15050565b60005481565b60026020528060005260406000206000915090505481565b60016020528060005260406000206000915090508060000154908060010154908060020160009054906101000a900473ffffffffffffffffffffffffffffffffffffffff16908060030154908060040160009054906101000a900460ff16908060040160019054906101000a900460ff16905086565b6000600160008381526020019081526020016000209050818160000154146105ee576040517f08c379a00000000000000000000000000000000000000000000000000000000081526004016105e590610e28565b60405180910390fd5b3373ffffffffffffffffffffffffffffffffffffffff168160020160009054906101000a900473ffffffffffffffffffffffffffffffffffffffff1673ffffffffffffffffffffffffffffffffffffffff1614610680576040517f08c379a0000000000000000000000000000000000000000000000000000000008152600401610677906111f5565b60405180910390fd5b600015158160040160009054906101000a900460ff161515146106d8576040517f08c379a00000000000000000000000000000000000000000000000000000000081526004016106cf90611287565b60405180910390fd5b600015158160040160019054906101000a900460ff16151514610730576040517f08c379a000000000000000000000000000000000000000000000000000000000815260040161072790611319565b60405180910390fd5b600360009054906101000a900473ffffffffffffffffffffffffffffffffffffffff1673ffffffffffffffffffffffffffffffffffffffff166323b872dd303384600101546040518463ffffffff1660e01b815260040161079393929190611090565b600060405180830381600087803b1580156107ad57600080fd5b505af11580156107c1573d6000803e3d6000fd5b5050505060018160040160016101000a81548160ff0219169083151502179055507f892d2b4b6a2321a91a25e6072aef64777008d4dd0054e8041ad6bbfd741e4ca1828260010154336040516108199392919061114c565b60405180910390a15050565b6000600260003373ffffffffffffffffffffffffffffffffffffffff1673ffffffffffffffffffffffffffffffffffffffff16815260200190815260200160002054116108a7576040517f08c379a000000000000000000000000000000000000000000000000000000000815260040161089e906113ab565b60405180910390fd5b3373ffffffffffffffffffffffffffffffffffffffff166108fc600260003373ffffffffffffffffffffffffffffffffffffffff1673ffffffffffffffffffffffffffffffffffffffff168152602001908152602001600020549081150290604051600060405180830381858888f1935050505015801561092c573d6000803e3d6000fd5b507f4f0554190111f93f8c2ccef2cc41473f187d7f29ff5a5c308ca41f9dfe4e989a33600260003373ffffffffffffffffffffffffffffffffffffffff1673ffffffffffffffffffffffffffffffffffffffff1681526020019081526020016000205460405161099d9291906113cb565b60405180910390a16000600260003373ffffffffffffffffffffffffffffffffffffffff1673ffffffffffffffffffffffffffffffffffffffff16815260200190815260200160002081905550565b600360009054906101000a900473ffffffffffffffffffffffffffffffffffffffff1673ffffffffffffffffffffffffffffffffffffffff166323b872dd3330856040518463ffffffff1660e01b8152600401610a4b93929190611090565b600060405180830381600087803b158015610a6557600080fd5b505af1158015610a79573d6000803e3d6000fd5b50505050600080815480929190610a8f906113f4565b91905055506040518060c0016040528060005481526020018381526020013373ffffffffffffffffffffffffffffffffffffffff168152602001828152602001600015158152602001600015158152506001600080548152602001908152602001600020600082015181600001556020820151816001015560408201518160020160006101000a81548173ffffffffffffffffffffffffffffffffffffffff021916908373ffffffffffffffffffffffffffffffffffffffff1602179055506060820151816003015560808201518160040160006101000a81548160ff02191690831515021790555060a08201518160040160016101000a81548160ff0219169083151502179055509050507f3c38229c4c0cea4ecbcef8389b33e8ff80cda9ae073425c4e47bfb5c9c852a20600054833384600080604051610bd796959493929190610d2a565b60405180910390a15050565b600080fd5b6000819050919050565b610bfb81610be8565b8114610c0657600080fd5b50565b600081359050610c1881610bf2565b92915050565b600060208284031215610c3457610c33610be3565b5b6000610c4284828501610c09565b91505092915050565b610c5481610be8565b82525050565b6000602082019050610c6f6000830184610c4b565b92915050565b600073ffffffffffffffffffffffffffffffffffffffff82169050919050565b6000610ca082610c75565b9050919050565b610cb081610c95565b8114610cbb57600080fd5b50565b600081359050610ccd81610ca7565b92915050565b600060208284031215610ce957610ce8610be3565b5b6000610cf784828501610cbe565b91505092915050565b610d0981610c95565b82525050565b60008115159050919050565b610d2481610d0f565b82525050565b600060c082019050610d3f6000830189610c4b565b610d4c6020830188610c4b565b610d596040830187610d00565b610d666060830186610c4b565b610d736080830185610d1b565b610d8060a0830184610d1b565b979650505050505050565b60008060408385031215610da257610da1610be3565b5b6000610db085828601610c09565b9250506020610dc185828601610c09565b9150509250929050565b600082825260208201905092915050565b7f546865207075726368617365206d757374206578697374000000000000000000600082015250565b6000610e12601783610dcb565b9150610e1d82610ddc565b602082019050919050565b60006020820190508181036000830152610e4181610e05565b9050919050565b7f546865206f776e6572206f66207468652070757263686173652063616e6e6f7460008201527f2066696c6c206974000000000000000000000000000000000000000000000000602082015250565b6000610ea4602883610dcb565b9150610eaf82610e48565b604082019050919050565b60006020820190508181036000830152610ed381610e97565b9050919050565b7f416e2070757263686173652063616e6e6f74206265207075726368617365642060008201527f7477696365000000000000000000000000000000000000000000000000000000602082015250565b6000610f36602583610dcb565b9150610f4182610eda565b604082019050919050565b60006020820190508181036000830152610f6581610f29565b9050919050565b7f412072656d6f7665642070757263686173652063616e6e6f742062652070757260008201527f6368617365640000000000000000000000000000000000000000000000000000602082015250565b6000610fc8602683610dcb565b9150610fd382610f6c565b604082019050919050565b60006020820190508181036000830152610ff781610fbb565b9050919050565b7f5468652045544820616d6f756e742073686f756c64206d61746368207769746860008201527f20746865204e4654205072696365000000000000000000000000000000000000602082015250565b600061105a602e83610dcb565b915061106582610ffe565b604082019050919050565b600060208201905081810360008301526110898161104d565b9050919050565b60006060820190506110a56000830186610d00565b6110b26020830185610d00565b6110bf6040830184610c4b565b949350505050565b7f4e487b7100000000000000000000000000000000000000000000000000000000600052601160045260246000fd5b600061110182610be8565b915061110c83610be8565b9250827fffffffffffffffffffffffffffffffffffffffffffffffffffffffffffffffff03821115611141576111406110c7565b5b828201905092915050565b60006060820190506111616000830186610c4b565b61116e6020830185610c4b565b61117b6040830184610d00565b949350505050565b7f5468652070757263686173652063616e206f6e6c792062652063616e63656c6560008201527f6420627920746865206f776e6572000000000000000000000000000000000000602082015250565b60006111df602e83610dcb565b91506111ea82611183565b604082019050919050565b6000602082019050818103600083015261120e816111d2565b9050919050565b7f41207075726368617365642070757263686173652063616e6e6f74206265207260008201527f656d6f7665640000000000000000000000000000000000000000000000000000602082015250565b6000611271602683610dcb565b915061127c82611215565b604082019050919050565b600060208201905081810360008301526112a081611264565b9050919050565b7f416e2070757263686173652063616e6e6f742062652072656d6f76656420747760008201527f6963650000000000000000000000000000000000000000000000000000000000602082015250565b6000611303602383610dcb565b915061130e826112a7565b604082019050919050565b60006020820190508181036000830152611332816112f6565b9050919050565b7f54686973207573657220686173206e6f2066756e647320746f20626520636c6160008201527f696d656400000000000000000000000000000000000000000000000000000000602082015250565b6000611395602483610dcb565b91506113a082611339565b604082019050919050565b600060208201905081810360008301526113c481611388565b9050919050565b60006040820190506113e06000830185610d00565b6113ed6020830184610c4b565b9392505050565b60006113ff82610be8565b91507fffffffffffffffffffffffffffffffffffffffffffffffffffffffffffffffff8203611431576114306110c7565b5b60018201905091905056fea26469706673582212208fb74ef0b5804fa48b355eb28b3e7be47178eee743bd5daae9e78cf2b86bcdb264736f6c634300080e0033",
  "immutableReferences": {},
  "source": "pragma solidity ^0.8.0;\n\nimport \"./NFTCollection.sol\";\n\ncontract NFTMarketplace {\n  uint public purchaseCount;\n  mapping (uint => _Purchase) public purchases;\n  mapping (address => uint) public userFunds;\n  NFTCollection nftCollection;\n\n  struct _Purchase {\n    uint purchaseId;\n    uint id;\n    address user;\n    uint price;\n    bool purchased;\n    bool removed;\n  }\n\n  event Purchase(\n    uint purchaseId,\n    uint id,\n    address user,\n    uint price,\n    bool purchased,\n    bool removed\n  );\n\n  event PurchaseFilled(uint purchaseId, uint id, address newOwner);\n  event PurchaseCancelled(uint purchaseId, uint id, address owner);\n  event ClaimFunds(address user, uint amount);\n\n  constructor(address _nftCollection) {\n    nftCollection = NFTCollection(_nftCollection);\n  }\n  \n  function listNFTForSale(uint _id, uint _price) public {\n    nftCollection.transferFrom(msg.sender, address(this), _id);\n    purchaseCount ++;\n    purchases[purchaseCount] = _Purchase(purchaseCount, _id, msg.sender, _price, false, false);\n    emit Purchase(purchaseCount, _id, msg.sender, _price, false, false);\n  }\n\n  function purchaseNFT(uint _purchaseId) public payable {\n    _Purchase storage _purchase = purchases[_purchaseId];\n    require(_purchase.purchaseId == _purchaseId, 'The purchase must exist');\n    require(_purchase.user != msg.sender, 'The owner of the purchase cannot fill it');\n    require(!_purchase.purchased, 'An purchase cannot be purchased twice');\n    require(!_purchase.removed, 'A removed purchase cannot be purchased');\n    require(msg.value == _purchase.price, 'The ETH amount should match with the NFT Price');\n    nftCollection.transferFrom(address(this), msg.sender, _purchase.id);\n    _purchase.purchased = true;\n    userFunds[_purchase.user] += msg.value;\n    emit PurchaseFilled(_purchaseId, _purchase.id, msg.sender);\n  }\n\n  function removeNFTFromSale(uint _purchaseId) public {\n    _Purchase storage _purchase = purchases[_purchaseId];\n    require(_purchase.purchaseId == _purchaseId, 'The purchase must exist');\n    require(_purchase.user == msg.sender, 'The purchase can only be canceled by the owner');\n    require(_purchase.purchased == false, 'A purchased purchase cannot be removed');\n    require(_purchase.removed == false, 'An purchase cannot be removed twice');\n    nftCollection.transferFrom(address(this), msg.sender, _purchase.id);\n    _purchase.removed = true;\n    emit PurchaseCancelled(_purchaseId, _purchase.id, msg.sender);\n  }\n\n  function claimFunds() public {\n    require(userFunds[msg.sender] > 0, 'This user has no funds to be claimed');\n    payable(msg.sender).transfer(userFunds[msg.sender]);\n    emit ClaimFunds(msg.sender, userFunds[msg.sender]);\n    userFunds[msg.sender] = 0;    \n  }\n\n  fallback () external {\n    revert();\n  }\n}",
  "sourcePath": "/Users/ruirui/codes/solidity/projects/NFTMarketPlace/contracts/NFTMarketplace.sol",
  "compiler": {
    "name": "solc",
    "version": "0.8.14+commit.80d49f37.Emscripten.clang"
  },
  "schemaVersion": "3.4.7",
  "updatedAt": "2023-05-05T22:13:46.747Z",
  "devdoc": {
    "kind": "dev",
    "methods": {},
    "version": 1
  },
  "userdoc": {
    "kind": "user",
    "methods": {},
    "version": 1
  }
}